:020000040800F2
:10000000283200208901000863140008C510000888
:100010006114000805030008791C000800000000B6
:10002000000000000000000000000000B1190008FE
:10003000070300080000000023190008B319000896
:10004000A3010008A3010008A3010008A301000800
:10005000A3010008A3010008A3010008A3010008F0
:10006000A3010008A3010008A3010008A3010008E0
:10007000A3010008A3010008A3010008A3010008D0
:10008000A3010008A3010008A3010008A3010008C0
:10009000A3010008A3010008A3010008A3010008B0
:1000A000A3010008A3010008A3010008A3010008A0
:1000B000A3010008A3010008A3010008A301000890
:1000C000A3010008A3010008A3010008A301000880
:1000D000A3010008611C00086D1C0008A3010008B2
:1000E000A3010008A3010008A301000800F002F822
:1000F00000F03AF80AA090E8000C82448344AAF188
:100100000107DA4501D100F02FF8AFF2090EBAE885
:100110000F0013F0010F18BFFB1A43F0010318473B
:10012000AC340000CC340000103A24BF78C878C149
:10013000FAD8520724BF30C830C144BF04680C60ED
:10014000704700000023002400250026103A28BF35
:1001500078C1FBD8520728BF30C148BF0B60704739
:100160001FB51FBD10B510BD00F09EF81146FFF77A
:10017000F7FF01F003FE00F0BCF803B4FFF7F2FF55
:1001800003BC01F08AFD0000094880470948004788
:10019000FEE7FEE7FEE7FEE7FEE7FEE7FEE7FEE737
:1001A000FEE7FEE704480549054A064B7047000094
:1001B000151A0008ED000008282C00202832002025
:1001C000282E0020282E00204FF0000200B51346F4
:1001D00094469646203922BFA0E80C50A0E80C5067
:1001E000B1F12001BFF4F7AF090728BFA0E80C5018
:1001F00048BF0CC05DF804EB890028BF40F8042B11
:1002000008BF704748BF20F8022B11F0804F18BF7D
:1002100000F8012B704700004FF0013C50F8042B10
:1002200051F8043B9A4221D1A2EB0C03934313EA09
:10023000CC1317D150F8042B51F8043B9A4215D136
:10024000A2EB0C03934313EACC130BD150F8042B0D
:1002500051F8043B9A4209D1A2EB0C03934313EAF1
:10026000CC13DBD04FF00000704700BFD01A01BAAA
:10027000B1FA81F101F0180122FA01F0CB40C1F18D
:100280002001DBB2C0B2C01A2CFA01F3D11A91439B
:1002900011EAC311E6D170477047704770470000FC
:1002A00000487047C82B00207546FFF7F9FFAE469F
:1002B00005006946534620F00700854618B020B572
:1002C000FFF770FFBDE820404FF000064FF0000739
:1002D0004FF000084FF0000B21F00701AC46ACE8EE
:1002E000C009ACE8C009ACE8C009ACE8C0098D465B
:1002F000704710B50446AFF300802046BDE81040BB
:10030000FFF73BBFFEE7704772B6FEE710B590F807
:1003100021100022022905D00421816380F82020C9
:10032000012010BD01680B6823F00E030B6001680B
:100330000B6823F001030B6090F84030C46B01217F
:1003400001FA03F3636080F8211080F82020104642
:1003500010BD000010B590F821100024022903D030
:100360000421816301243DE001680A6822F00E0245
:100370000A6001680A6822F001020A601A4A0168EC
:10038000914201D1012121E0174A1432914201D159
:1003900010211BE0144A2832914201D1891515E041
:1003A000114A3C32914201D189140FE00E4A503279
:1003B000914202D14FF4803108E00B4A64329142FD
:1003C00002D14FF4801101E04FF08071064A083AE3
:1003D0005160012180F82110002180F82010416B2C
:1003E00001B18847204610BD080002402DE9F84FB2
:1003F000DFF8B891002409F1040A0AF1040B23463E
:100400000F270BF1040EC9E00125A5402A40AA429E
:100410007DD1674ED1F804C0ACEB0608B44532D0AC
:1004200014DCBCF1030F3AD009DCBCF1000F2AD078
:10043000BCF1010F1CD0BCF1020F31D11DE0BCF1A9
:10044000110F17D0BCF1120F2AD119E0B8F5881F8F
:1004500019D006DCB8F5803F15D0B8F5801F1FD144
:1004600011E0B8F5001F0ED0B8F5041F18D10AE04E
:10047000CB6815E0CB681B1D12E0CB6808330FE09A
:10048000CB680C330CE08B682BB1012B4FF00803C9
:1004900003D0456104E0042302E0056100E000238D
:1004A000FF2A01D8064601E000F104064FEA840560
:1004B00001D9A5F12005D6F8008007FA05FC28EA45
:1004C0000C0803FA05F548EA0508C6F800804D68EF
:1004D000ED0062D5374DAE6946F00106AE61AD69FB
:1004E00024F0030605F001050095334D06EB050CDD
:1004F000DCF80850A607360F07FA06F825EA0805C3
:10050000DFF8B880404503D14FF0000817E044E021
:10051000DFF8AC80404502D14FF001080FE0DFF872
:10052000A480404502D14FF0020808E0DFF898802F
:10053000404502D14FF0030801E04FF0040808FAEB
:1005400006F848EA0508CCF808804D68D9F800603C
:10055000ED034D4601D5164300E096432E604D68ED
:10056000DAF80060AD03554601D5164300E0964326
:100570002E604D68DBF80060ED025D4601D5164344
:1005800000E096432E604D68DEF80060AD027546CF
:1005900001D5164300E096432E60641C0D682A4680
:1005A000E5407FF431AFBDE8F88F00000004014062
:1005B000000011100010024000000140000801403E
:1005C000000C014000100140001401408068084008
:1005D00000D001207047C26821EA02030A4043EAC2
:1005E0000241016170470AB1016170470904FBE7EC
:1005F000014880687047000034000020024881688C
:10060000027811448160704734000020074810B51B
:10061000016841F010010160032000F075F80F201F
:1006200000F006F800F024F8002010BD0020024081
:1006300070B50D4D04464FF47A712878B1FBF0F097
:100640000A490968B1FBF0F000F0ECFA48B9102C47
:1006500007D200222146501E00F036F800206C60C0
:1006600070BD012070BD0000340000201800002083
:100670000C4808B5816941F001018161816901F08F
:1006800001010091C16941F08051C161C06900F070
:10069000805000900448416821F0E06141F0007111
:1006A000416008BD0010024000000140002809DB45
:1006B00000F01F02012191404009800000F1E0207C
:1006C000C0F8001170470000F0B40E4B1B680C46D8
:1006D000C3F30223C3F10705042D00D90425191D16
:1006E000072901D2002300E0DB1E012606FA05F1EE
:1006F000491E214099409E40761E16403143F0BC71
:1007000001F0BBBA0CED00E0064900F007020868F2
:100710004FF6FF03184040EA0220034A10430860E6
:10072000704700000CED00E00000FA052DE9F047ED
:100730000F46050061D0434E306800F00700B84214
:1007400009D2306820F0070038433060306800F08C
:100750000700B84251D128683B4C810712D54007A9
:1007600003D5606840F4E06060602878000703D536
:10077000606840F4605060606068A96820F0F00034
:10078000084360602878C00728D06868012810D026
:100790002168022810D0890700292EDA616821F02B
:1007A000030101436160FFF723FF804641F288396E
:1007B0000DE021688903EFE78901EDE7FFF718FFF6
:1007C000A0EB0801494502D90320BDE8F087606825
:1007D000696800F00C00B0EB810FEFD1306800F0D9
:1007E0000700B8420BD9306820F00700384330606A
:1007F000306800F00700B84201D00120E5E7287812
:10080000400705D56068E96820F4E060084360604F
:100810002878000706D56068296920F4605040EA0E
:10082000C100606000F038F86168084AC1F3031144
:10083000515CC8400649086006480068FFF7F8FEAA
:100840000020C2E70020024000100240342B0008C4
:100850001800002038000020044805490068496855
:10086000044AC1F30221515CC840704718000020BF
:1008700000100240442B00080448054900684968FC
:10088000044AC1F3C221515CC840704718000020DF
:1008900000100240442B000812A185B00FC98DE85A
:1008A0000F0014A0144A006804905168134801F026
:1008B0000C03042B10D0082B0ED1C1F38343C903C2
:1008C0001DF803000AD5516804AAC1F34041515CE8
:1008D0000A4A5043B0FBF1F005B07047084948435D
:1008E000FAE7000002030405060708090A0B0C0DCD
:1008F0000E0F1010010200000010024000127A00DA
:1009000000093D002DE9F84F040070D02078C04D5B
:10091000C00749D06868C0F38100012807D0686823
:10092000C0F38100022809D16868C00306D5286891
:10093000800339D560680028E7D035E06068B0F5FD
:10094000803F0BD010B1B0F5A02F11D0286820F453
:1009500080302860286820F4802002E0286840F475
:1009600080302860606890B1FFF742FE06460AE0DA
:10097000286840F480202860F0E700BFFFF738FEC9
:10098000801B642873D828688003F7D50CE0FFF734
:100990002FFE064605E000BFFFF72AFE801B6428F5
:1009A000F0D828688003F7D420789A4E80074FF05B
:1009B00001094FF0000839D5686810F00C0F07D016
:1009C0006868C0F38100022809D16868C00306D4B2
:1009D0002868800714D52069012808D110E0206913
:1009E000B0B1C6F80090FFF703FE074605E00AE144
:1009F000FFF7FEFDC01B0228C4D828688007F7D582
:100A00002868616920F0F80040EAC10028600DE024
:100A1000C6F80080FFF7ECFD074604E0FFF7E8FDAD
:100A2000C01B022823D828688007F7D42078000745
:100A30002CD57948A169D9B1C0F80090FFF7D8FD4D
:100A4000074604E0FFF7D4FDC01B02280FD8686AF0
:100A50008007F7D571484FF4FA510068B0FBF1F008
:100A6000009000BF0098411E0091FAD20EE080E095
:100A7000C0F80080FFF7BCFD074604E0FFF7B8FDB3
:100A8000C01B022875D8686A8007F7D42078400711
:100A900060D5E8690027C00008D4E86940F08050BC
:100AA000E861E869012700F0805000905C48016827
:100AB000C90513D40168834641F480710160FFF7D2
:100AC00097FD824606E000BFFFF792FDA0EB0A000B
:100AD00064284ED8DBF80000C005F5D5E068012891
:100AE0000AD008B1052813D0286A20F00100286236
:100AF000286A20F0040002E0286A40F00100286221
:100B0000E06841F2883B98B1FFF772FD82460BE046
:100B1000286A40F004002862EEE700BFFFF768FD96
:100B2000A0EB0A0159455AD8286A8007F6D50CE08F
:100B3000FFF75EFD824605E0FFF75AFDA0EB0A01D4
:100B400059454CD8286A8007F6D41FB1E86920F0CF
:100B50008050E861E06988B36968C1F381010229C6
:100B600044D00228C6F8608004D0FFF741FD044657
:100B700038E034E0FFF73CFD074604E0FFF738FDBE
:100B8000C01B02282BD828688001F7D4206AB0F552
:100B9000803F05D16868A16820F400300843686090
:100BA000D4E908010843696821F4741108436860B6
:100BB000C6F86090FFF71CFD044606E025E000BF84
:100BC000FFF716FD001B022809D828688001F7D519
:100BD0001BE000BFFFF70CFD001B022802D9032019
:100BE000BDE8F88F28688001F4D40EE00128F7D022
:100BF0006868226A00F48031914204D1616A00F48D
:100C00007010884201D00120EAE70020E8E70000E8
:100C100000100240000042428004424218000020BE
:100C20000070004010B5401EB0F1807F01D301205C
:100C300010BD4FF0E02460610F21601701F01DF836
:100C40000020A06107202061002010BD7047704780
:100C5000F8B5026804461068D168536910F00F0FA8
:100C60004FF0000553D003F0010601F490773743AD
:100C70005FD0C20705D0CA0503D5226C42F001023D
:100C80002264420705D5DA0703D0226C42F0020243
:100C90002264820705D5DA0703D0226C42F00402F1
:100CA0002264020707D501F02002324303D0226CF0
:100CB00042F008022264226C002A34D0800604D557
:100CC000880602D5204600F0C6FE20684069216CE7
:100CD000C0F38010090700D430B3204600F0A3FE13
:100CE0002068416949061BD5416921F040014161F5
:100CF000A06BA8B158494163A06BFFF72BFB0028FC
:100D000011D0A06B416B01B0BDE8F04008478306ED
:100D10000FD58B060DD52046BDE8F84000F09BBEF0
:100D20002046FFF794FFF8BD2046FFF790FF2564AB
:100D3000F8BD266B2023012E52D1C60650D5CE0613
:100D40004ED5106850680090506940062AD5A16BB6
:100D5000086840680004000CEAD0A68D8642E7D9F6
:100D6000E0858869202818D0D06820F48070D06091
:100D70002068416921F0010141612068416921F049
:100D80004001416184F83E3025632068C16821F04C
:100D90001001C160A06BFFF7B9FAA08DE18D401A78
:100DA00081B219E0A08DE18D401A81B2E08D00285A
:100DB000BED00029BCD0D06820F49070D0602068EC
:100DC000426922F00102426184F83E3025632068C6
:100DD000C26822F01002C2602046FFF737FFF8BD5C
:100DE00005062BD50D0629D594F83D002128F6D10E
:100DF000A068B0F5805F01D12069B0B1206A411CC4
:100E00002162216800784860E08C401E0004000CDC
:100E1000E084E4D12068C16821F08001C1602068CD
:100E2000C16841F04001C160F8BD206A0088C0F38C
:100E300008005060206A801C2062E5E74006F3D578
:100E40004806F1D5D168204621F04001D16084F8F0
:100E50003D3000F036F9F8BD171A000870B50400EF
:100E600004D094F83D00002510B106E0012070BDCB
:100E700084F83C50204600F023F8242084F83D00FC
:100E80002068C16821F40051C160204600F03EFE98
:100E90002068016921F4904101612068416921F0D5
:100EA0002A0141612068C16841F40051C160256494
:100EB000202084F83D0084F83E00002070BD000032
:100EC00070B586B000240094019402940394364EC9
:100ED0000368364902200322354DB3422ED18B6977
:100EE00043F480438B618B6903F4804304938B69E3
:100EF00043F004038B618969039201F004010491BA
:100F00000102CDE9001069462846FFF76FFA28155F
:100F1000CDE90004694628460294FFF767FA0022EB
:100F200011462520FFF7D0FB2520FFF7BFFB01224C
:100F300000212520FFF7C8FB252030E01D4EB342DD
:100F40002FD1CB6943F40033CB61CB6903F4003379
:100F500004938B6943F004038B618969039201F068
:100F6000040104910421CDE9001069462846FFF7E9
:100F70003DFA0820CDE90004694628460294FFF7AF
:100F800035FA002211462620FFF79EFB2620FFF7A8
:100F90008DFB012200212620FFF796FB2620FFF77C
:100FA00085FB06B070BD0000003801400010024013
:100FB000000801400044004090F83E30202B0ED144
:100FC00059B152B190F83C30012B08D0012380F880
:100FD0003C300023036300F0F5BD01207047022080
:100FE0007047000008480178FD2907D1A0F10F01E2
:100FF00042780A7082784A70C07888700622024966
:101000000248FFF7D9BF00000F0000208400002035
:101010002DE9F843044690F83D001F4616460D465C
:1010200020284CD1C5B1BEB194F83C00012846D06F
:10103000012084F83C004FF00008C4F840802120D3
:1010400084F83D00FFF7D4FAA6848146E684A068C0
:10105000B0F5805F03D004E00120BDE8F88320698B
:1010600028B12E465FF0000584F83C800EE0002693
:10107000FAE78021204600F0C0FDA0B9AEB116F815
:10108000010B21684860E08C401EE084E08C4B46F8
:101090004FF0000200970028EBD14FF040012046AE
:1010A00000F0ABFD30B10320D7E735F8020BC0F3F9
:1010B0000800E6E7202084F83D000020CDE702206C
:1010C000CBE77047FEE7000010B50F4C00228021EF
:1010D0002046FFF788FA00F047FC0022A1152046C1
:1010E000FFF781FA022000F0DFFD01228021204677
:1010F000FFF779FA022000F0D7FD20460022BDE874
:1011000010408021FFF76FBA000C014070B586B027
:10111000002414480094019402940394816941F0DE
:1011200004018161816901F004010491816941F048
:101130000801816180690C4E00F008004FF4C07511
:101140000490012229463046FFF74DFA0120009510
:10115000CDE901040220039069463046FFF746F9C5
:1011600006B070BD00100240000C014010B50F4CDD
:10117000002280212046FFF736FA00F0F5FB01221D
:1011800011022046FFF72FFA022000F08DFD012208
:1011900080212046FFF727FA022000F085FD204637
:1011A0000022BDE810408021FFF71DBA000C01406D
:1011B0002DE9F0410746002400F0B4FB144E002551
:1011C0004FF48078002280213046FFF70CFA02208D
:1011D00000F06AFD012280213046FFF704FA600624
:1011E000040E41463046FFF7F1F908B1641CE4B241
:1011F000012000F059FD6D1CEDB2082DE2D327B19E
:10120000FFF762FF2046BDE8F081FFF7AFFFF9E787
:10121000000C01402DE9F041054600F0A5FB144EFD
:10122000002280213046FFF7DEF90024B715EA09D5
:1012300039463046FFF7D7F96806050E022000F060
:1012400033FD012280213046FFF7CDF9022000F066
:101250002BFD002280213046FFF7C5F9022000F067
:1012600023FD641CE4B2082CE1D3BDE8F08100004A
:10127000000C014070B500F077FB01220E4D140206
:1012800021462846FFF7AFF9012280212846FFF7C3
:10129000AAF9042000F008FD002221462846FFF7A5
:1012A000A2F9042000F000FD2846BDE870400022AD
:1012B0008021FFF798B90000000C014070B500F0E4
:1012C00053FB0F4C002280212046FFF78CF9A51517
:1012D000002229462046FFF786F9042000F0E4FCAE
:1012E000012280212046FFF77EF90122294620466F
:1012F000FFF779F9BDE87040042000F0D5BC00008C
:10130000000C014070B5002400F00CFB0122134DCD
:10131000160231462846FFF766F9012000F0C4FCAA
:10132000012280212846FFF75EF9012000F0BCFC75
:1013300007E0641CE4B2FA2C03D9FFF7BFFF0120D9
:1013400070BD31462846FFF741F90028F1D100224F
:1013500080212846FFF747F9002070BD000C0140AE
:1013600070B586B000241C48009401940294039444
:10137000816941F010018161816901F010010491DE
:10138000816941F020018161816901F020010491AE
:10139000816941F004018161816901F004010491D6
:1013A000816941F00801816180690C4E00F00800FC
:1013B0004FF4C0450490002229463046FFF713F948
:1013C00001200095CDE901040220039069463046D2
:1013D000FFF70CF806B070BD00100240000C014091
:1013E00010B50E4C0C480C2120604FF4E1306060C9
:1013F0000020A060E060C4E90401A061E061204633
:10140000FFF72CFD08B1FEF77FFF2068C16841F0AF
:101410002001C16010BD00000038014040000020E4
:1014200010B50E4C0C480C2120604FF4E130606088
:101430000020A060E060C4E90401A061E0612046F2
:10144000FFF70CFD08B1FEF75FFF2068C16841F0AF
:101450002001C16010BD0000004400408400002055
:10146000FEE7FEE710B50021074C0A46002004EB1A
:10147000C1131A54401CC0B28028FAD3491CC9B207
:101480000829F3D310BD0000C8270020F0B50B4495
:1014900024E0044685181DE07F2C19D8002917DBAD
:1014A0003F2915DCCE1701EB56764FEAE60C0D4FBF
:1014B00026F0070607EBCC172744A1EB060E97F89A
:1014C00000C0012606FA0EF62CEA060C87F800C0CA
:1014D000641C24B2A542DFDC491C09B28B42D8DC73
:1014E000F0BD0000C827002010B586B000214FF4E1
:1014F0007A720020401C9042FCD3491C9142F8D3E0
:101500001248816941F0080181618069104C00F046
:101510000800049011200190002002900320039005
:101520004FF40050009069462046FEF75FFF4FF4ED
:101530008040009069462046FEF758FF012000F0E9
:10154000B7F9012000F0BCF906B010BD0010024050
:10155000000C014070B500240646802525FA04F0F1
:10156000304000D0012000F0ABF9012000F0A0F9DC
:10157000002000F09DF9641CE4B2082CEED3012099
:1015800000F096F9BDE87040002000F091B910B568
:10159000012000F095F9012000F08AF9002000F008
:1015A0008FF9BDE81040002000F082B910B500208E
:1015B00000F086F9012000F07BF9BDE81040012021
:1015C00000F07EB910B5FFF78FFFAE2000F080F974
:1015D000D52000F07DF9802000F07AF9A82000F0F5
:1015E00077F93F2000F074F9D32000F071F9002062
:1015F00000F06EF9402000F06BF9A12000F068F9CE
:10160000C82000F065F9DA2000F062F9122000F03D
:101610005FF9812000F05CF9CF2000F059F9D92062
:1016200000F056F9F12000F053F9DB2000F050F9FA
:10163000302000F04DF9A42000F04AF9A62000F077
:1016400047F98D2000F044F9142000F041F9AF2053
:1016500000F03EF9FFF706FFBDE8104000F014B9B6
:101660000246012000E05043491EFCD2704710B5ED
:101670000C4640F0B00000F02BF9102040EA1410A6
:1016800000F026F904F00F00BDE8104000F020B98A
:1016900008B5082B0DD0062B0AD10A4B02EB4202EB
:1016A00003EB4202C03A00920823062200F054F8ED
:1016B00008BD054B03EB0212A2F500721023009245
:1016C0000822F3E732320008422C00082DE9FC5FC3
:1016D000002490468B4682462546DFF8749001949C
:1016E00030E001A90855641CE4B2022C28D3002480
:1016F000264606E0384601A9FEF78EFD68B1761C45
:10170000F6B2C6EBC60000EB800101EB090007460C
:1017100010A1FEF781FD0028ECD1C6EBC60000EB5E
:10172000800101EB0900C01C0090681C41080AEB15
:1017300001101038102300B21A46594600F00CF878
:101740006D1CEDB218F805000028CAD1BDE8FC9F59
:101750006C340008000000002DE9F04F1F461646CB
:101760000D4682460024FFF791FE7F1EF81707EB17
:1017700050700121DFF898B001EBE00743E0002052
:101780003DE000BF0AEB00037F2B36D8E91705EBDD
:101790005171CA1021F00701691A002D03DA521E97
:1017A000083112B209B202EB0409B9F1070F0ED8E1
:1017B000099A04FB06F802440BEBC91E18F8022034
:1017C0001EF803C08A404CEA020C0EF803C009F16F
:1017D0000102072A11D80BEBC91202EB0308099A80
:1017E00004FB06FC024498F880301CF80220C1F18A
:1017F0000801CA40134388F88030401CC0B2B04290
:10180000C0D3641CE4B2A742B9DCBDE8F08F00008D
:10181000C82700202DE9F04700241D4690468A463F
:1018200081460A27089E14E0291B0A20491EFFF75B
:1018300017FFB8FBF0F0B0FBF7F107FB110204FB58
:10184000069000B2334651463032FFF721FF641C48
:10185000E4B2AC42E8D3BDE8F0872DE9F0411E4682
:10186000154688460746002408E004FB067000B2CF
:1018700033464146FFF70CFF641CE4B22A5D002AA0
:10188000F3D1BDE8F081000070B5084D00240021BF
:101890002046FFF7ECFE05EBC410802100F029F88C
:1018A000641CE4B2082CF2D370BD0000C8270020ED
:1018B00002464FF400510148FEF795BE000C01406E
:1018C00002464FF480410148FEF78DBE000C0140F6
:1018D00010B50446FFF75BFE7820FFF73BFE0020C3
:1018E000FFF738FE2046FFF735FEBDE81040FFF752
:1018F0005DBE70B50D460646FFF749FE7820FFF73E
:1019000029FE4020FFF726FE002404E0305DFFF7AB
:1019100021FE641CE4B2AC42F8D3BDE87040FFF78E
:1019200045BE704730B585B000200190029003900D
:101930000B48816941F0080181618069094D00F01F
:1019400008004FF480740490694600942846FEF71E
:101950004DFD012221462846FEF745FE05B030BD6B
:1019600000100240000C014030B585B0002002900C
:101970000D48816941F00801816180694FF48074EC
:1019800000F0080004900120CDE900400320074D3D
:10199000039069462846FEF729FD01222146284684
:1019A000FEF721FE05B030BD00100240000C0140E2
:1019B0007047FEF723BE30B58FB028216846FEF78A
:1019C00003FC14210AA8FEF7FFFB01210804CDE95E
:1019D00000100024029402250491CDE907504FF431
:1019E000E01009906846FEF78DFF08B172B6FEE779
:1019F0000F20CDE90A054FF48060CDE90C400221AB
:101A00000AA80E94FEF792FE002801D072B6FEE7F7
:101A10000FB030BD704710B5406A0021C185C18448
:101A2000FFF715F910BD0168CA6822F49072CA6008
:101A300001684A6922F001024A61016B012904D15F
:101A40000168CA6822F01002CA60202180F83E10A6
:101A500000210163704708B590F83E10222901D09B
:101A6000022008BD82684FF480539A4201D1016977
:101A700021B1816A9A421BD04AB10AE00268816AA8
:101A80005268C2F308020A80816A891C08E0026970
:101A900072B10268526802F07F020A70816A491CC2
:101AA0008162C18D491E0904090CC18503D019E06A
:101AB00002685268F1E70168CA6822F02002CA6031
:101AC0000168CA6822F48072CA6001684A6922F01B
:101AD00001024A61202180F83E10016B012903D0E8
:101AE000FFF780FA002008BD002101630168CA6881
:101AF00022F01002CA6001680A68D20602D50A689C
:101B000049680091818DFFF7A1F8EBE770B50446B5
:101B100000680169E26821F44051114301612169C3
:101B2000A0680843616908432168CA6841F20C63F0
:101B30009A430243CA6020684169A26921F4407156
:101B4000114341611E492068884202D1FEF794FE8C
:101B500001E0FEF781FE00EBC00101EB00126068BE
:101B600064218000B2FBF0F3B3FBF1F36FF01806D1
:101B70007343B2FBF0F5B2FBF0F605EB83053223BD
:101B800003EB0515B5FBF1F5B6FBF1F605F0F00535
:101B900005EB0615B2FBF0F6B2FBF0F0B0FBF1F08E
:101BA0006FF01802504306EB800003EB0010B0FB0F
:101BB000F1F0216800F00F002844886070BD00003B
:101BC0000038014081628285C285002101642222A1
:101BD00080F83E2080F83C100168CA6842F48072A8
:101BE000CA6001684A6942F001024A610068C1683E
:101BF00041F02001C160002070472DE9F041984676
:101C000017460E460446069D1DE0681C1BD02DB1EC
:101C1000FEF7EEFCA0EB0800A84214D92068C168CA
:101C200021F4D071C1602068416921F00101416156
:101C3000202084F83D0084F83E00002084F83C0019
:101C40000320BDE8F0812068006836EA000004D077
:101C50000020B842D9D00020F3E70120F9E70000C6
:101C60000148FEF7F5BF0000400000200148FEF7E4
:101C7000EFBF000084000020FEE70907090E0028DE
:101C800004DB00F1E02080F80014704700F00F0042
:101C900000F1E02080F8141D70477047014908608A
:101CA000704700003000002070B54FF0E0240022A3
:101CB00065690949A36909684843A1699942FCD04B
:101CC00002D2A3EB010302E0A5EB010633441A4460
:101CD0000B468242F1D370BD30000020F8B5114DA3
:101CE000082406460094AA78032300211820FFF751
:101CF00091FD02233246002160200094FFF78AFD07
:101D000000942A78032310214020FFF783FD0094DC
:101D10006A78032320214020FFF77CFDBDE8F840CE
:101D2000FFF7B2BD000000204FF6FF730622024904
:101D30000248FFF76DB90000030000208400002076
:101D400000B585B0002002900A48816941F0100179
:101D500081618069694600F0100004904FF40050E2
:101D6000009001200190032003900348FEF73EFB02
:101D700005B000BD00100240001001401CB500205D
:101D800001900090FEF742FCFFF715FE4820FFF798
:101D900085FFFFF7E5FAFFF723FBFFF741FBFFF7AE
:101DA000CFFFFFF70FFC0021082324A20846FFF70E
:101DB00054FD082322A200213020FFF74EFD22A26D
:101DC00010210020FFF782FC21A220210020FFF734
:101DD0007DFCFFF759FD06221F492048FFF7ECF86C
:101DE00000F09EF91C4CDFF87890A41FFD264FF4FC
:101DF0000058A4F10905FE274FF6FF7A694601A8AD
:101E000000F0B4F8FFF790FF0098C0B2FFF766FF4C
:101E100041464846FEF7DFFB2670A87860702878B8
:101E2000A0706878E070009820710B496771534684
:101E30000622891F0B48FFF7EBF8DFE748523A000C
:101E40002F737030323A0000CAD5CBF5D1B90000FB
:101E5000CAE6D5C5D1B900000F00002084000020DB
:101E6000001001404000002010B50446FFF702FAC0
:101E7000AE20FFF7CFF9FFF745FA68B92046FFF724
:101E8000C9F9FFF73FFA38B9FFF7F4F9AF20FFF7C8
:101E9000C1F9FFF737FA18B1FFF710FA002010BDAB
:101EA0000020FFF785F90446FFF760F9FFF706FA0F
:101EB000204610BD70B50C460546FFF7DBF9AE2095
:101EC000FFF7A8F9FFF71EFA58B92846FFF7A2F95D
:101ED000FFF718FA28B92046FFF79CF9FFF712FA26
:101EE00018B1FFF7EBF9002070BDFFF7E7F901200B
:101EF00070BD70B505460C460020FFF7B5FF012008
:101F0000FFF7B2FFFFF7B6F9AE20FFF783F9FFF74F
:101F1000F9F938BB2846FFF77DF9FFF7F3F908BB5D
:101F2000FFF7A8F9AF20FFF775F9FFF7EBF9C8B98C
:101F30000120FFF73DF920700120FFF739F96070AB
:101F40000120FFF735F9A0700120FFF731F9E070AB
:101F50000120FFF72DF920710020FFF729F96071AA
:101F6000FFF7ACF9BDE87040FFF7A8B92DE9F34FD2
:101F7000DFF894A185B00AF5FA694FF4FA7B634C57
:101F800000256420D4464A464FEA0B0802EB800342
:101F900052F82010A3F58053E246C3F8701E0CEBF4
:101FA0008003A3F580535CF82070C3F8707EA142D3
:101FB00000D20C46A94200D90D46401C5845E5DB2D
:101FC0004FF4C87709EB870050F8048C2021504863
:101FD000FEF7FCFA0128F9D003A90720FFF789FFD3
:101FE0009DF80C009DF80D108007800B40EA012041
:101FF0009DF80E10084349F827009DF80F109DF832
:1020000010208907890B41EA02219DF81120114314
:102010004AF82710404514D9A0EB080000F0AAFCAC
:102020008046281B00F0A6FC0146404600F0C4FB99
:10203000384900F0B3FC00F081FC361A16D50026B2
:1020400014E0A8EB000000F095FC8046281B00F08F
:1020500091FC0146404600F0AFFB2E4900F09EFC8B
:1020600000F06CFC0644FF2E00DDFF262A4890F9A4
:102070000320012A0AD18178012907D10169962913
:1020800004DAC368652B01DA416003E000210161D5
:102090004160A2B17F1C5F4594DB1F4AD21C02F154
:1020A0000D01501E8DE80700841E0B1F1B4A1648A9
:1020B000A16800F0FFF8E078012802D01FE001617C
:1020C000E2E7A07801281AD12069322817DD962886
:1020D00015DAE068652812DA502810DD0E480599F7
:1020E00002690A600699C2680A604178012901D133
:1020F000002141700121017007B0BDE8F08F01207F
:102100006070002020703AE728180020FFFF0300CD
:10211000000C014000007F431C000020F81F00203D
:102120002DE9F04385B0FEF7F1FF00F08FF800F0E5
:1021300081F8C0210220FFF7BDFE00210320FFF738
:10214000B9FE00210420FFF7B5FE00210520FFF7AE
:10215000B1FE00210620FFF7ADFE0F210820FFF79A
:10216000A9FE03210920FFF7A5FE27210A20FFF77A
:10217000A1FE24210C20FFF79DFE24210D20FFF756
:1021800099FE7F211020FFF795FE264F244D002455
:102190004FF4FA70DFF89090DFF890802646B86030
:1021A00020214846FEF712FA0128F9D003A907209A
:1021B000FFF79FFE9DF80C009DF80D108007800B27
:1021C00040EA01209DF80E10084348F826009DF8CB
:1021D0000F109DF810208907890B41EA02219DF814
:1021E00011201143124AA84242F8261000D2054697
:1021F000A04200D90446B868761C8642D0DB094A62
:10220000D21C02F10D01501E8DE807000B1F074A7A
:102210000748B96800F04EF805B0BDE8F08300004B
:10222000FFFF03001C000020000C0140F81F0020ED
:102230002818002010B540210920FFF73BFE40215F
:10224000BDE810400920FFF735BE00000A4800B580
:10225000816985B041F0080181618069694600F0BB
:102260000800049020200090002001900290034874
:10227000FEF7BCF805B000BD00100240000C0140A4
:102280002DE9F8418046DDE90706009017460C4627
:10229000099D404600F0ECF933463A462146404657
:1022A00000F01CFA2068A84200DB28462060BDE848
:1022B000F88100002DE9FF4FBFB00E4600211C46FB
:1022C00008464C9D04E03F9A52F82020401C1144DF
:1022D000B042F8DBB1FBF6F20020E04906E03F9B9C
:1022E00053F820309B1A41F82030401CB042F6DBF6
:1022F00000204FF4F87C00BF01EB800251F8203041
:102300005768E3463B44D2E902723A441A44D31771
:1023100002EB9372921041F82020401C5845EBDBF1
:10232000CF4A00204FF4F77301EB800751F820C02B
:102330007F688946A7EB0C0742F82070401C984242
:10234000F2DD002002EB800752F820107F689A46E9
:10235000394401EBD171491042F82010401C50451E
:10236000F0DBC04F0020964600230146421D08E0E6
:10237000A1EB00085EF821C037F81880491C0CFB5F
:1023800018339142F4DB40F27A4193FBF1F14EF8BD
:102390002010401C7346B0F5F47FE5DD00221046A6
:1023A0004FEA0A0753F82010002900DC4942401C7C
:1023B0000A445045F6DD40F2EF1392FBF3F005229C
:1023C00008218DE80700A64A3DA912A8FFF758FF8B
:1023D00000223D9B12A89646022B1ADB012109E040
:1023E00000EB810C50F821705CF804CC491CA7EB81
:1023F0000C073A449942F3DB5B1E92FBF3F141F286
:10240000707292FBF1F24D990A604E9A012111709F
:1024100005E04D9A944911604E9A82F800E000213F
:102420003D9F06E050F8213024AA9B1C42F8213041
:10243000491CB942F6DB0020C8460BE03F9951F831
:10244000201048F82010419951F82020874941F880
:102450002020401CB042F1DB0022134628E000BFE0
:1024600024A84FF0010950F823004FF08076411D59
:1024700051451CDCA0F1050CBCF1000F17DD401F1D
:102480000FE000BF58F820C0B44509DAB9F1000FD9
:1024900001D04FF0000966460DF10C0C4CF82300FA
:1024A000401C8842EEDBB9F1000F00D1521C5B1CCE
:1024B000BB42D5DB022A06DA6B48206085F800E0D3
:1024C00043B0BDE8F08FDFF8A4C1002008EB800125
:1024D00058F820304E68E1463344D1E90261314476
:1024E0001944CB1701EB9371891048F820100CEBBD
:1024F00080035CF820605F683E44D3E902733B448C
:102500003344DE1703EB96739B104CF82030401CCD
:102510005845DBDB00200DF1D40B3E9000234BF837
:102520002030401C0528F9DB00204FF4FA7309E045
:1025300003A951F82010994203DD4B482060002088
:102540008AE0401C9042F3DB0023A2F1010A61E023
:1025500003A800EB830650F823E076684FF07F4233
:10256000A6EB0E0011463B900A2852DD7046CC4681
:102570000DE000BF58F820708F4201DD39463C90D5
:102580005CF82070974201DD3A463390401C864249
:10259000F0DC59F826C059F82E000290ACEB000090
:1025A000DDF8CCC0ACEB0E0778433B9F90FBF7F710
:1025B000029807EB000C339F59F82770A7EB0C0724
:1025C000219758F8260058F82E60DDF8F0C0801BDF
:1025D000ACEB0E0778433B9F90FBF7F03044339E03
:1025E000219F58F826604F43301A5043F911C0110B
:1025F00000280EDD3E9A052A0BDA51B101EB81016C
:10260000890091FBF0F23E984BF820203E98401C48
:102610003E905B1C53459BDB58463E9900F094F876
:102620003E9800EBD070401001280ADD0BEB8002D1
:102630005BF8200052F8042C104400EBD0704010DE
:1026400001E05BF82000C11EB529BFF476AF054953
:102650003E31085C20600120287031E788080020A6
:10266000C80000204C2B000819FCFFFF5810002068
:102670002DE9F043814600240120DDF81C805E1E18
:102680000C6026E052F82070474521DD02EB800403
:1026900054F8044CA7421BDD012500E06D1C4419D1
:1026A0009C4203DA52F824C06745F7D0054452F83B
:1026B0002550AF420ADD0D680F2D07DA4FEA850C71
:1026C0006D1C0D6049F80C00601C02E0204600E023
:1026D000401CB042D6DBBDE8F08300002DE9F0439A
:1026E0001E4613460C460A6805460146184600F089
:1026F00045F84FF0FF3840461CE00A46411CC6F141
:102700000009216013E000BF55F82170431C19D067
:1027100055F82030FB1AB34201DC4B4506DA23683A
:102720004FEA830C5B1C236045F80C70491C9142F6
:10273000EADB401C21688142DFDC2846BDE8F0432B
:1027400000F002B84346E5E730B5012312E000BFD0
:1027500050F823401A4602E040F82250521E002A48
:1027600005DD00EB820555F8045CA542F4DC40F879
:1027700022405B1C8B42EBDB30BD0000F0B5012436
:1027800016E000BF51F82450234602E041F82360D0
:102790005B1E002B09DD01EB830650F8257056F80F
:1027A000046C50F826C06745F0DC41F82350641CE7
:1027B0009442E7DBF0BD00004FF47F0C1CEAD0121E
:1027C0001EBF1CEAD11392EA0C0F93EA0C0F00F023
:1027D000858090EA010F48BF42F4807240F4000CFB
:1027E00041F400002CF07F4120F07F4000B5814291
:1027F000A2EB03020FF2081CACEB504EC0F100003C
:102800009EF800E04FEA4E0E00FB0EFC38BF490078
:102810004FEA2C1C02F5FA020CFB0EF34FEACE1E17
:102820004FEA112C4FEAC1210EEB635E42EB2242CC
:102830000EFB0CFC4FEA1C5300FB03114FEA112C5A
:102840004FEA01310EFB0CFC4FEADC4C00FB0C1193
:10285000C14228BF09184CEB03335DF804EB10EBC1
:10286000410143EBC250B2F57C0F38BF704729D508
:1028700012F0F00F1CBF00F1C04000F000407047A4
:10288000008182838485868788898B8C8D8E8F9149
:102890009293959697999A9C9D9FA0A2A3A5A7A86D
:1028A000AAACAEB0B2B3B5B7B9BCBEC0C2C5C7C999
:1028B000CCCED1D4D7D9DCDFE2E6E9ECF0F3F7FAFD
:1028C000FE0000004FEA400C0CF1807CBCF17E4F12
:1028D00028BF7047B0F1C04000F027B990EA010F5F
:1028E0000CEAD11348BF42F48072624538BF634599
:1028F00007D213F47F0F16D080EA010000F00040E9
:10290000704710B500F0CBF8097EFC3E00F005B82A
:1029100080EA010000F00040704780EA010000F00A
:10292000004000F002B912F47F0F04BF0248704764
:1029300080EA010000F0F9B80000C07F41000B0EF2
:10294000D3F19E0208D950F400034FEA032323FA7F
:1029500002F048BF4042704710B500F0A0F800BF39
:1029600049922480002070476FF0004282EA2000E4
:1029700070470000B0FA80F310FA03F2C3F19D0330
:102980000AD0D90501EB1220530638BF704700F179
:10299000010008BF20F00100704700004FF47F0CD9
:1029A0001CEAD0121EBF1CEAD11392EA0C0F93EA64
:1029B0000C0F00F0478090EA010F48BF42F480728C
:1029C0004FF0004C4CEA00204CEA012102EB0302DC
:1029D000A0FB0113A2F50002002918BF43F0010378
:1029E0005B0028BF4FEA330342EB22425FEA132C1D
:1029F0004CEBC2502EBFBCEB436FB2F57C0F70475F
:102A00004FEA036CBCF1004F08BF20F00100B2F5A3
:102A10007C0F38BF70470BD582F0FF0212F5803F64
:102A2000C8BF704700F1C040D8BF00F000407047F9
:102A300000F5000C5FEA4C0C48BF7047B0F1C04095
:102A400000F073B890EA010F0CEAD11348BF42F4CA
:102A50008072624538BF634504D280EA010000F00D
:102A60000040704710B500F01AF800BF8900013E21
:102A700000F007B800F009B85FEA410C5FEA1C6C8F
:102A800008D080EA010000F050B85FEA400C5FEA2D
:102A90001C6CF6D14FF00040A0F5800070470EF19D
:102AA000020E2EF0030E5EF8044B244204D44FEACB
:102AB0004102B2F17F4F11D84FEA4003B3F17F4F8B
:102AC0000CD80ED14FEAD07CB2F17F4F0CEB4C0CFE
:102AD0000CF1020C08BF4CEBD17C04E04FF0080C69
:102AE00001E04FEAD17C0CEB4C0324FA03F404F030
:102AF0000704B4F1040C06D20EEB840CBDE81040C0
:102B00004CF0010C6047DFE80CF0070802024FF0C0
:102B10000040A0F5800010BD0846420018BFD2F169
:102B2000807288BF00F0004010BDFF2141EAD05004
:102B3000C00570470000000000000000010203040F
:102B4000060708090000000001020304290014011F
:102B50000002140129000000000000000000000035
:102B60000000000000000000000000000000000065
:102B70000000000000000000000000000000000055
:102B8000000000000000000000005F5F5F60606008
:102B90006161616161626262626263636363636314
:102BA00063636464646464646464646464646464E7
:102BB00064646464646463636363636363636262E1
:102BC0006262626261616161606060605F5F5F5EFE
:102BD0005E5E5D5D5D5C5C5C5B5B5A5A5959595841
:102BE00058575756565555545453525251515050A8
:102BF0004F4E4E4D4C4C4B4A4A4948484746454536
:102C00004443424241403F3E3E3D3C3B3A393838E6
:102C100037363534333231302F2E2D2C2B2A2928BC
:102C2000272625242322211F1E1D1C1B1A191716B7
:102C300015141311100F0E0C0B0A090706050302D9
:102C40000100000000000000000000000000000083
:102C50000000000000F80000000000000033300019
:102C6000000000160E00160E00000000000000001C
:102C7000000040C07840C0784000043F04043F0496
:102C80000400007088FC08300000001820FF211E9E
:102C90000000F008F000E018000000211C031E21D5
:102CA0001E0000F00888700000001E212324192750
:102CB0002110000000160E000000000000000000BF
:102CC0000000000000E018040200000000071820C7
:102CD000400000020418E000000000402018070037
:102CE0000000404080F0804040000202010F0102DD
:102CF0000200000000F0000000000101011F0101BE
:102D00000100000000000000000000B070000000A2
:102D100000000000000000000000000101010101AE
:102D20000101000000000000000000303000000041
:102D30000000000000008060180400601806010018
:102D4000000000E010080810E000000F1020201024
:102D50000F00001010F8000000000020203F20208D
:102D60000000007008080888700000302824222124
:102D700030000030088888483000001820202011DA
:102D80000E000000C02010F8000000070424243FBB
:102D9000240000F808888808080000192120201164
:102DA0000E0000E0108888180000000F112020118C
:102DB0000E0000380808C83808000000003F000076
:102DC00000000070880808887000001C2221212261
:102DD0001C0000E010080810E00000003122221161
:102DE0000F00000000C0C0000000000000303000F4
:102DF0000000000000C0C0000000000080B07000B3
:102E000000000000804020100800000102040810AB
:102E100020004040404040404000040404040404BA
:102E20000400000810204080000000201008040268
:102E30000100007048080808F0000000003036016A
:102E40000000C030C828E810E00007182724231429
:102E50000B000000C038E0000000203C23020227E5
:102E6000382008F8888888700000203F2020201132
:102E70000E00C0300808080838000718202020106D
:102E8000080008F808080810E000203F2020201063
:102E90000F0008F88888E8081000203F2020232031
:102EA000180008F88888E8081000203F2000030078
:102EB0000000C03008080838000007182020221E33
:102EC000020008F808000008F808203F210101214D
:102ED0003F20000808F8080800000020203F2020BC
:102EE000000000000808F8080800C08080807F000B
:102EF000000008F888C028180800203F2001263864
:102F0000200008F8080000000000203F20202020BA
:102F1000300008F8F800F8F80800203F003F003FB4
:102F2000200008F830C00008F808203F20000718EB
:102F30003F00E01008080810E0000F1020202010CB
:102F40000F0008F808080808F000203F21010101DF
:102F50000000E01008080810E0000F182424385082
:102F60004F0008F8888888887000203F2000030CF4
:102F700030200070880808083800003820212122FD
:102F80001C00180808F8080818000000203F20005E
:102F9000000008F808000008F808001F2020202082
:102FA0001F000878880000C83808000007380E01A4
:102FB0000000F80800F80008F800033C0700073C90
:102FC0000300081868808068180820302C03032C40
:102FD00030200838C800C83808000000203F200012
:102FE000000010080808C8380800203826212020D2
:102FF0001800000000FE020202000000007F4040B6
:103000004000000C30C00000000000000001063845
:10301000C00000020202FE000000004040407F00AD
:10302000000000201008040810200000000000002C
:103030000000000000000000000080808080808090
:103040008080000204080000000000000000000072
:1030500000000000808080800000001924222222CD
:103060003F2008F8008080000000003F1120201160
:103070000E000000008080800000000E1120202043
:103080001100000000808088F800000E1120201040
:103090003F200000808080800000001F222222222A
:1030A0001300008080F0888888180020203F2020AE
:1030B00000000000808080808000006B94949493D6
:1030C000600008F8008080800000203F2100002080
:1030D0003F2000809898000000000020203F202022
:1030E0000000000000809898000000C08080807F71
:1030F000000008F8000080808000203F24022D306E
:103100002000000808F8000000000020203F2020D8
:1031100000008080808080808000203F20003F2051
:10312000003F008080008080000000203F210020C0
:103130003F200000808080800000001F2020202091
:103140001F00808000808000000080FFA1202011EF
:103150000E000000008080808000000E112020A062
:10316000FF80808080008080800020203F21200020
:10317000010000008080808080000033242424240B
:103180001900008080E0808000000000001F2020E7
:1031900000008080000000808000001F20202010A0
:1031A0003F20808080000080808000010E30080673
:1031B000010080800080008080800F300C030C3084
:1031C0000F0000808000808080000020312E0E31B2
:1031D0002000808080000080808080818E701806B2
:1031E000010000808080808080000021302C22211E
:1031F000300000000000807C020200000000003F60
:10320000404000000000FF00000000000000FF0040
:1032100000000002027C800000000040403F0000EF
:10322000000000804040800000800000000000019D
:1032300001000000000000000000002F000000005E
:103240000700070000147F147F1400242A7F2A122D
:10325000002313086462003649552250000000071D
:10326000000000001C224100000041221C0000144C
:10327000083E08140008083E0808000000A060008E
:10328000000808080808000060600000002010081E
:103290000402003E5149453E0000427F400000428A
:1032A00061514946002141454B31001814127F10ED
:1032B000002745454539003C4A494930000171091C
:1032C000050300364949493600064949291E0000D0
:1032D0003636000000005636000000081422410077
:1032E00000141414141400004122140800020151A7
:1032F0000906003E4955592E007C1211127C007FB0
:1033000049494936003E41414122007F4141221C4A
:10331000007F49494941007F09090901003E4149AF
:10332000497A007F0808087F0000417F41000020A3
:1033300040413F01007F08142241007F404040404F
:10334000007F020C027F007F0408107F003E414195
:10335000413E007F09090906003E4151215E007F80
:10336000091929460046494949310001017F0101F7
:10337000003F4040403F001F2040201F003F40389A
:10338000403F0063140814630007087008070061D9
:103390005149454300007F414100000204081020CC
:1033A000000041417F00000402010204004040404F
:1033B0004040000001020400002054545478007F73
:1033C0004844443800384444442000384444487F4A
:1033D00000385454541800087E0901020018A4A4AF
:1033E000A47C007F080404780000447D4000004075
:1033F00080847D00007F102844000000417F400051
:10340000007C04180478007C0804047800384444E4
:10341000443800FC242424180018242418FC007CC0
:103420000804040800485454542000043F44402039
:10343000003C4040207C001C2040201C003C4030D0
:10344000403C004428102844001CA0A0A07C00445C
:1034500064544C440000087F41000000007F0000DD
:103460000000417F0800000804081008B5C80008E3
:10347000042322262A22FA242322262A02020001D9
:103480000909091969090949897D0909090100B46E
:10349000FD00001088C433404848487F48C8484869
:1034A0004000020100FF00020A320242827F020253
:1034B0000200BCEC001010D0FF905020504C434C48
:1034C0005020404000040300FF00414458414E603A
:1034D0005847404000B2E2001060028C00FE02F249
:1034E00002FE00F800FF000004047E018047300F58
:1034F00010270047807F0000CAD50000FC0000FFB5
:10350000004020D8171010F0101000000F0402FF28
:103510000080402116081621408000CBF50020389D
:10352000E730008CC4342425A66424242C002227F0
:1035300012120100FF0000FF494949FF0000D1B904
:10354000000000FE0282828282FA828282828202ED
:103550000080601F40404040407F40404458404011
:1035600000CAE600102824E324285042424AD26AC6
:103570004640C00001F9494F49F9010040807F00F1
:1035800000010000D5C50002E222223E8080FF80BB
:10359000A0908886808000004382423E0000FF4069
:1035A00021060810204000000000FF010101310940
:1035B000090909897101010101FFFF808080808074
:1035C000809681808080808080FF0000EC3500083C
:1035D0000000002040000000280100082C360008F0
:1035E00040000020E831000044010008000000FD18
:1035F00000000000000000000000000000000000CB
:10360000000000000024F4000001000000000000A1
:1036100000000000000000000000000000000000AA
:0C3620000100000010000000000000008D
:04000005080000ED02
:00000001FF
