:020000040800F2
:10000000100D002099010008790F0008430A00082C
:10001000750F00081D090008751C0008000000008D
:100020000000000000000000000000007D16000835
:100030002109000800000000671500086917000882
:10004000B3010008B3010008B3010008B3010008C0
:10005000B3010008B3010008B3010008B3010008B0
:10006000B3010008B3010008B3010008B3010008A0
:10007000B3010008B3010008B3010008B301000890
:10008000B3010008B3010008B3010008B301000880
:10009000B3010008B3010008B3010008B301000870
:1000A000B3010008B3010008B3010008B301000860
:1000B000CD170008B3010008B3010008B301000820
:1000C000B3010008B3010008B3010008B301000840
:1000D000B301000869190008ED190008311A000879
:1000E000B3010008B3010008B301000800F002F8F2
:1000F00000F042F80AA090E8000C82448344AAF180
:100100000107DA4501D100F037F8AFF2090EBAE87D
:100110000F0013F0010F18BFFB1A43F0010318473B
:10012000888A0000A88A0000103A24BF78C878C1E5
:10013000FAD8520724BF30C830C144BF04680C60ED
:10014000704700000023002400250026103A28BF35
:1001500078C1FBD8520728BF30C148BF0B60704739
:10016000642900F0AB80732900F05F8300207047A2
:100170001FB51FBD10B510BD00F0A2FB1146FFF763
:10018000F7FF03F019FC00F0C0FB03B4FFF7F2FF28
:1001900003BC01F004FE00000948804709480047FD
:1001A000FEE7FEE7FEE7FEE7FEE7FEE7FEE7FEE727
:1001B000FEE7FEE704480549054A064B7047000084
:1001C0006D170008ED00000810070020100D00203A
:1001D0001009002010090020704710B54C1084EA67
:1001E000530404D54042C1F1000138BF491E1B42EF
:1001F00004D55242C3F1000338BF5B1E00F00AFA77
:1002000014F0804F04D04042C1F1000138BF491EB4
:1002100014F0004F04D05242C3F1000338BF5B1EFC
:1002200010BD00000FB4044910B503AA029800F0F5
:1002300001FB10BC5DF814FB280000200FB41CB5B6
:10024000084B06AA7B4469460090059800F0C3FA63
:1002500004460020694600F0D1FA20461CBC5DF837
:1002600014FB0000B505000070B50C460546012AD8
:1002700005D02878800600D5EA69002302E0012332
:1002800005E05B1C934202D2E05C0028F9D1A8692A
:10029000E618C01AA861286A184428622846AFF3F5
:1002A000008004E0D5E9012114F8010B9047B44225
:1002B000F8D32846AFF3008070BD00002DE9F0416F
:1002C0000646002410687529314616A510D0AFF3F4
:1002D0000080002802DA404213A507E031688A074F
:1002E00001D512A502E0490704D511A5012401E0BA
:1002F000AFF3008000210A2206F1240709E0B0FBD9
:10030000F2FCB0FBF2F302FB1C00303078541846CC
:10031000491C0028F3D123462A463046BDE8F04167
:1003200000F0FAB9000000002D0000002B000000D2
:10033000200000002DE9F05F894604464FF0000AD6
:10034000DFF874B1FB44C0F820A02046E16888477C
:10035000002874D0252806D0D4E901219047206ACE
:10036000401C2062F1E700265F462046E16888478E
:100370002028054607DB312D05D2781910F8200C0E
:1003800008B10643F1E7B00701D526F00406C4F82A
:100390001CA00027C4F818A02A2D09D0284601F077
:1003A000F7FC38B304EB8708303DC8F8185019E063
:1003B00059F8041B204604EB87029161E1688847E5
:1003C000012F054618D1E069002820DA26F0200622
:1003D0001DE0D8F8180000EB800005EB4000303835
:1003E000C8F818002046E1688847054601F0D0FCAF
:1003F0000028EED1012F0AD02E2D08D12046E16829
:1004000088477F1C0546022F46F02006C4DBA06902
:10041000002803DA404246F00106A061F00701D04F
:1004200026F010066C2D0BD0682D09D04C2D39D03C
:100430006A2D35D0742D35D07A2D33D016E038E0C2
:10044000E1682F4620468847B842054609D16C2FFF
:1004500026D04FF48060E168064320468847054671
:1004600004E06C2F1AD04FF4807006430DB3A5F151
:100470004100192802D8203546F400664A4629462C
:10048000204626604E46FFF76BFE80B101280BD058
:10049000F61D26F0070000F1080956E74020E4E7C2
:1004A0008020D8E70020D6E706F104094DE728466A
:1004B00052E7206ABDE8F09FDA84000030B50546B7
:1004C0000B462A4613F8014B12F8010B08B1A04263
:1004D000F8D01CB1002802D06D1CF1E7284630BDD1
:1004E00040EA010310B59B070FD1042A0DD310C8B1
:1004F00008C9121F9C42F8D020BA19BA884201D903
:10050000012010BD4FF0FF3010BD1AB1D30703D04A
:10051000521C07E0002010BD10F8013B11F8014B00
:100520001B1B07D110F8013B11F8014B1B1B01D11C
:10053000921EF1D1184610BD02F0FF0343EA0322D8
:1005400042EA024200F002B84FF000020429C0F073
:10055000128010F0030C00F08181CCF1040CBCF18E
:10056000020F18BF00F8012BA8BF20F8022BA1EB47
:100570000C0100F073B95FEAC17C24BF00F8012BC5
:1005800000F8012B48BF00F8012B70474FF0013CE9
:1005900050F8042B51F8043B9A4221D1A2EB0C03F2
:1005A000934313EACC1317D150F8042B51F8043BB2
:1005B0009A4215D1A2EB0C03934313EACC130BD14F
:1005C00050F8042B51F8043B9A4209D1A2EB0C03DA
:1005D000934313EACC13DBD04FF00000704700BF09
:1005E000D01A01BAB1FA81F101F0180122FA01F032
:1005F000CB40C1F12001DBB2C0B2C01A2CFA01F32A
:10060000D11A914311EAC311E6D170477047704780
:100610007047704753EA020C00F069802DE9F04BF7
:100620004FF00006002B1FBFB3FA83F503FA05F461
:1006300024FA05F65E4012BF1643B2FA82F502FABA
:1006400005F4C5F120051EBF22FA05FC44EA0C049E
:10065000203556EA044C4FEA144418BF641C4FF08E
:1006600000084FF00009904271EB030C39D30029C8
:1006700019BFB1FA81F701FA07F6B0FA80F700FA6C
:1006800007F6C7F120071EBF20FA07FC46EA0C0652
:100690002037B6FBF4FCA7EB0507103F07F01F0B54
:1006A000CBF120060CFA0BFB2CFA06F644BFB3463E
:1006B0000026202FA4BF5E464FF0000B5BEA060C1D
:1006C00008BF4FF0010B19EB0B09ABFB027C48EBA9
:1006D0000608C01B06FB02CC0BFB03CC71EB0C0124
:1006E000C1E70B46024641464846BDE8F08B13B5CC
:1006F0004FF000004FF00001AFF30080BDE81C4058
:10070000704710B500F0D0F8006810BD10B5044671
:1007100000F0CAF8046010BD2DE9F0470D46994677
:100720009246044600F124080168880604D5E06971
:1007300021F01001216000E00120A84201DD471BEB
:1007400000E00027A1697A1902EB0900081AA061EC
:100750002078C00602D42046AFF30080002608E0CF
:10076000D4E901211AF806009047206A401C761C43
:1007700020624E45F4DB2078C0060AD52046AFF350
:10078000008006E0D4E9012130209047206A401C17
:100790002062381EA7F10107F4DC07E0D4E901214B
:1007A00018F805009047206A401C2062281EA5F119
:1007B0000105F3DC2046AFF300802078000602D567
:1007C0000220BDE8F0870120FBE7000001694A1C18
:1007D00002610878704700B58FB0CDE90131002182
:1007E000059105497944CDE9031011466846FFF7A4
:1007F000A1FD0FB000BD0000E5FFFFFF0A6802F891
:10080000010B0A60704710B5436913B1AFF3008064
:1008100001E0FFF729FD012010BD127800F124014D
:100820000A7000224A700122EDE711684FF0FF3292
:10083000E9E70000074B70B50D467B44FFF7CBFF9F
:100840000446284600F034F810B14FF0FF3070BD78
:10085000204670BDAB2A00004FF0000200B51346E1
:1008600094469646203922BFA0E80C50A0E80C50D0
:10087000B1F12001BFF4F7AF090728BFA0E80C5081
:1008800048BF0CC05DF804EB890028BF40F8042B7A
:1008900008BF704748BF20F8022B11F0804F18BFE7
:1008A00000F8012B7047000000487047B006002098
:1008B000007B00F08000704700487047B0060020C1
:1008C0007546FFF7F9FFAE4605006946534620F02E
:1008D0000700854618B020B5FFF76CFCBDE8204046
:1008E0004FF000064FF000074FF000084FF0000BEC
:1008F00021F00701AC46ACE8C009ACE8C009ACE89F
:10090000C009ACE8C0098D46704710B50446AFF386
:1009100000802046BDE81040FFF737BC00BFFEE76F
:1009200070472DE9F04102460025002600200023F3
:100930000024002791F803C00CF00F0591F803C0C4
:100940000CF0100CBCF1000F03D091F802C04CEA7F
:10095000050591F800C0BCF1000F31D014680020EB
:100960002BE04FF0010C0CFA00F3B1F800C00CEAD8
:1009700003069E4220D183004FF00F0C0CFA03F7C0
:10098000BC4305FA03FC4CEA040491F803C0BCF133
:10099000280F06D14FF0010C0CFA00FCC2F814C06D
:1009A0000AE091F803C0BCF1480F05D14FF0010CEB
:1009B0000CFA00FCC2F810C0401C0828D1D3146007
:1009C000B1F800C0BCF1FF0F34DD546800202EE008
:1009D00000F1080C4FF0010808FA0CF3B1F800C060
:1009E0000CEA03069E4221D183004FF00F0C0CFA53
:1009F00003F7BC4305FA03FC4CEA040491F803C076
:100A0000BCF1280F05D100F1080C08FA0CF8C2F867
:100A1000148091F803C0BCF1480F07D100F1080C15
:100A20004FF0010808FA0CF8C2F81080401C0828A2
:100A3000CED35460BDE8F0810AB1016100E04161AC
:100A4000704700BFFEE72DE9FC4104460D461646FF
:100A50006B4606223B21682000F08DF90746BFB99E
:100A60009DF801009DF8001040EA012000B22080AE
:100A70009DF803009DF8021040EA012000B2288092
:100A80009DF805009DF8041040EA012000B2308076
:100A90003846BDE8FC81000010B500200949086017
:100AA00000F0B6F900200849C1F8940100F00EF8F2
:100AB00001200449086000F009F800200249C1F84B
:100AC000900110BD900121420000214210B502208A
:100AD00001F066FD10BD000008B50121042000F002
:100AE00053FD3020ADF8000010208DF803000320E6
:100AF0008DF8020069460448FFF713FF01223021F8
:100B00000148FFF799FF08BD0008014010B500201B
:100B10000949086000F07CF901200849C1F89401F6
:100B2000FFF7D4FF012004490860FFF7CFFF002042
:100B30000249C1F8900110BD9001214200002142FC
:100B400070B50546002400F051F9002614E000209D
:100B50000E490860FFF7BAFF01200D49C1F8900166
:100B60006006040E09487C38006808B1601CC4B2F5
:100B7000FFF7ACFF701CC6B2082EE8DB15B9FFF713
:100B8000C5FF01E0FFF788FF204670BD90012142BC
:100B90000000214270B5044600F03AF900200D49EA
:100BA0000860002512E0E0090A49091D0860600696
:100BB000040E01200849C1F89001FFF787FF0020CB
:100BC00004490860FFF782FF681CC5B2082DEADB04
:100BD00070BD0000900121420000214210B500F0DC
:100BE00017F90120084908600849C1F89001FFF78A
:100BF0006DFF002004490860FFF768FF00200349EB
:100C0000C1F8900110BD0000940121420000214272
:100C100010B500F0FDF80020074908600749C1F849
:100C20009401FFF753FF0120034908600349C1F80D
:100C30009401FFF74BFF10BD9001214200002142BB
:100C400010B5002400F0D2F801200E490860FFF72B
:100C50003DFF01200C49C1F89001FFF737FF07E085
:100C6000601CC4B2FA2C03DDFFF7D2FF012010BDD7
:100C70000448803800680028F2D10249091F086042
:100C800000BFF4E7940121420000214210B528483A
:100C9000806940F00400264988612648006820F0F9
:100CA0007040244908600846006840F040500860E1
:100CB000002021490860FFF70FFF80216B2000F022
:100CC00007F9642001F062FC00216B2000F000F9BC
:100CD000032000F0BBF8002000F0B0F8322000F054
:100CE000DAF80021382000F0F3F800216A2000F043
:100CF000EFF80021232000F0EBF88021372000F0EE
:100D0000E7F8752000F01AF80446682C0BD1012191
:100D10006B2000F0DDF800216C2000F0D9F83220C3
:100D200000F0B9F801E0012010BD0020FCE7000050
:100D30000010024004080140BC01214270B5044685
:100D4000FFF74CFFD020FFF725FFFFF779FF204684
:100D5000FFF720FFFFF774FFFFF740FFD120FFF7F9
:100D600019FFFFF76DFF0020FFF7EAFE0546FFF7CA
:100D70004FFF284670BD2DE9F04106460F46144648
:100D80001D46FFF72BFF002141EA4601C8B2FFF7DD
:100D900001FFFFF755FF20B1FFF73AFF0120BDE843
:100DA000F0813846FFF7F6FEFFF74AFFFFF716FF20
:100DB000012101EB4601C8B2FFF7ECFEFFF740FF4F
:100DC0000DE0012C04D10020FFF7BAFE287003E0EB
:100DD0000120FFF7B5FE2870601EC4B26D1C002C08
:100DE000EFD1FFF715FF0020D9E7000008B501217A
:100DF000042000F0C9FB2020ADF8000004208DF88D
:100E0000030069460148FFF78CFD08BD000801405A
:100E100008B50121042000F0B7FB2020ADF8000048
:100E200010208DF8030003208DF802006946024867
:100E3000FFF777FD08BD00000008014010B504462B
:100E4000E006010E1C2000F043F810BD10B504466A
:100E5000E006010E1B2000F03BF810BD70B5044603
:100E60000025BC2C01DB012510E0622C01DB0225F2
:100E70000CE02A2C01DB032508E0142C01DB0425FF
:100E800004E00A2C01DB052500E0062529461A208E
:100E900000F01EF870BD70B50446B4F57A7F01DD30
:100EA0004FF47A74042C00DA04244FF47A7090FB27
:100EB000F4F0401EC5B22946192000F009F8054695
:100EC000264604EBD671C1F34F00FFF7C7FF70BD94
:100ED00070B505460C46FFF781FED020FFF75AFE9D
:100EE000FFF7AEFE18B1FFF793FE012070BD284654
:100EF000FFF750FEFFF7A4FE2046FFF74BFEFFF77B
:100F00009FFE18B1FFF784FE0120EFE7FFF780FE98
:100F10000020EBE72DE9F04105460E4617469846BE
:100F2000FFF75CFE002141EA4501C8B2FFF732FE3F
:100F3000FFF786FE20B1FFF76BFE0120BDE8F081D0
:100F40003046FFF727FEFFF77BFE00240CE018F881
:100F50000400FFF71FFEFFF773FE18B1FFF758FEFE
:100F60000120EBE7601CC4B2BC42F0DBFFF750FE8F
:100F70000020E3E700BFFEE77047000070B50021E6
:100F800000230F22C47804B3154C246804F4E064F1
:100F9000C4F5E064210AC1F10403CA40447804FAAC
:100FA00003F184781440214309010E4C0678A155C1
:100FB000047804F01F050124AC4005786D11AD00E4
:100FC00005F1E025C5F8004109E0047804F01F05AB
:100FD0000124AC40044D0678761145F8264070BDDA
:100FE0000CED00E000E400E080E100E00249014394
:100FF000024A1160704700000000FA050CED00E0A5
:1010000000200CE0002106E00022064B03EBC01399
:101010005A544A1CD1B28029F6DB421CD0B20828AF
:10102000F0DB7047A00200202DE9F04304460D4696
:1010300016461F46284638E0224631E0002A2DDBBE
:101040007F2A2BDC002829DB3F2827DC4FEAE07CC5
:1010500000EB5C7C4FEAEC0CDFF8588008EBCC1C12
:101060001CF802C003464FEAE07800EB58784FEADC
:10107000E808A0EBC8094FF0010808FA09F82CEAC3
:10108000080C01464FEAE07800EB58784FEAE80890
:10109000DFF8209009EBC81808F802C0511C0AB20A
:1010A000A1199142CADC411C08B2E9198142C3DC92
:1010B000BDE8F083A002002038B5002406E000253A
:1010C00000E06D1CB5F57A7FFBD3641CB4F57A7F24
:1010D000F5D30121082000F057FA14208DF8030001
:1010E00003208DF802004FF40050ADF8000069466F
:1010F0000848FFF716FC4FF48040ADF80000694641
:101100000448FFF70EFC012000F0EEF9012000F08A
:10111000F7F938BD000C014070B50546002411E018
:1011200080212141294009B1012100E00021084628
:1011300000F0E6F9012000F0D7F9002000F0D4F922
:10114000601CC4B2082CEBDB012000F0CDF90020BC
:1011500000F0CAF970BD10B5012000F0D1F90120EE
:1011600000F0C2F9002000F0CBF9002000F0BCF93B
:1011700010BD10B5002000F0C3F9012000F0B4F953
:10118000012000F0BDF910BD10B5FFF795FFAE20AE
:1011900000F0C2F9D52000F0BFF9802000F0BCF9C2
:1011A000A82000F0B9F93F2000F0B6F9D32000F0F4
:1011B000B3F9002000F0B0F9402000F0ADF9A12013
:1011C00000F0AAF9C82000F0A7F9DA2000F0A4F98D
:1011D000122000F0A1F9812000F09EF9CF2000F04C
:1011E0009BF9D92000F098F9F12000F095F9DB2067
:1011F00000F092F9302000F08FF9A42000F08CF973
:10120000A62000F089F98D2000F086F9142000F066
:1012100083F9AF2000F080F9FFF7F2FE00F050F9FB
:1012200010BD10B50246012000E050430B1EA1F195
:101230000101FAD110BD70B505460C4645F0B0006D
:1012400000F06AF9102141EA141000F065F904F089
:101250000F0000F061F970BDF8B506460F46144660
:101260001D46082D0CD1A4F120000E4901EB001001
:101270001023082239460090304600F065F80FE050
:10128000062D0DD1A4F1200000EB4000064901EB32
:1012900040000823062239460090304600F054F8FA
:1012A000F8BD00007A7200086A7800082DE9FC4752
:1012B00080468946164600270020019000253AE026
:1012C000705D01A9C855781CC7B2022F31DB002719
:1012D00000240CE0C4EBC40101EB8101184A88181A
:1012E00001A9FFF753F900B90CE0601CC4B2C4EBCC
:1012F000C40101EB8101124A881812A1FFF746F9D7
:101300000028E7D100BFC4EBC40000EB80000C490B
:101310000844C01C05F1010A0AEBDA714910491EA4
:1013200008EB0111009008B210231A46494600F05C
:101330000BF8681CC5B2705D0028C1D1BDE8FC8700
:10134000A47A0008000000002DE9FF4F80460E46F9
:101350009146DDF834B0002500244A463146404627
:10136000039BFFF761FE00BF5EE0002558E008EB3D
:101370000500002852DB08EB05007F284EDC3046D4
:10138000F11706EB5171C9100FB2F11706EB51714D
:10139000C910A6EBC10A002E05DA781E07B20AF1C1
:1013A00008000FFA80FA3819002817DB38190728C7
:1013B00014DC3819224901EBC01008EB0501405C30
:1013C00004FB09511BF8011001FA0AF1084339190D
:1013D0001B4A02EBC11108EB050288543819401C66
:1013E00000281BDB3819401C072817DC3819401C63
:1013F000134901EBC01008EB0501405C04FB0951E7
:101400001BF80110CAF10802114108433919491C9F
:101410000B4A02EBC11108EB05028854681CC5B2E7
:101420004D45A4DB601CC4B20399481EC11700EBF4
:101430005171012202EBE101A14296DCBDE8FF8F70
:10144000A00200202DE9F0470646894617461D46B2
:10145000DDF82080002417E0281B411E0A20FFF73A
:10146000E0FEB7FBF0F00A21B0FBF1F201FB120045
:1014700000F1300A04FB086108B24346524649466F
:10148000FFF7EAFE601CC4B2AC42E5DBBDE8F087C2
:101490002DE9F0410646884615461F46002409E01E
:1014A0002A5D04FB076108B23B464146FFF7D4FEC4
:1014B000601CC4B2285D0028F2D1BDE8F0810000B4
:1014C00010B500240BE000212046FFF7B4FE0549CB
:1014D00001EBC410802100F02FF8601CC4B2082C6E
:1014E000F1DB10BDA002002010B5044622464FF4E7
:1014F00000510248FFF7A0FA10BD0000000C0140A7
:1015000010B5044622464FF480410248FFF794FA92
:1015100010BD0000000C014010B50446FFF71BFE93
:101520007820FFF7F9FD0020FFF7F6FD2046FFF7D2
:10153000F3FDFFF71EFE10BD70B505460E46FFF722
:101540000AFE7820FFF7E8FD4020FFF7E5FD0024C4
:1015500004E0285DFFF7E0FD601CC4B2B442F8DB94
:10156000FFF707FE70BD704729B1064AD2690243F2
:10157000044BDA6104E0034AD2698243014BDA6129
:10158000704700000010024029B1064A92690243E8
:10159000044B9A6104E0034A92698243014B9A61C9
:1015A000704700000010024030B5002100220024E6
:1015B00000232D4D6D6805F00C0121B1042905D0E3
:1015C000082923D105E0294D056022E0274D05605B
:1015D0001FE0254D6D6805F47012234D6D6805F40C
:1015E0008034022505EB92421CB9214D554305601C
:1015F0000BE01D4D6D6805F400351DB11C4D5543C4
:10160000056002E0194D5543056002E0174D056085
:1016100000BF00BF144D6D6805F0F0010909154DBC
:101620006B5C0568DD4045600F4D6D6805F4E06159
:10163000090A104D6B5C4568DD4085600A4D6D6898
:1016400005F46051C90A0B4D6B5C4568DD40C5600F
:10165000054D6D6805F44041890B074D6B5CC5680D
:10166000B5FBF3F5056130BD0010024000127A00B1
:1016700000093D001000002020000020704710B538
:1016800000F002F810BD00000CB5002001900090A1
:101690003348006840F480303149086000BF30486A
:1016A000006800F4003000900198401C0190009800
:1016B00018B90198B0F5A06FF1D12948006800F47D
:1016C000003010B10120009001E00020009000984F
:1016D000012843D12348006840F0100021490860E8
:1016E0000846006820F0030008600846006840F0E3
:1016F000020008601A484068194948600846406876
:1017000048600846406840F4806048600846406889
:1017100020F47C1048600846406840F4E8104860B7
:101720000846006840F08070086000BF0C48006800
:1017300000F000700028F9D00948406820F003004C
:10174000074948600846406840F00200486000BF12
:101750000348406800F00C000828F9D10CBD0000D7
:1017600000100240002002407047000010B51348EE
:10177000006840F0010011490860084640681049BF
:1017800008400E494860084600680E4908400B4969
:1017900008600846006820F4802008600846406819
:1017A00020F4FE0048604FF41F008860FFF767FFD9
:1017B0004FF000600449086010BD000000100240B6
:1017C0000000FFF8FFFFF6FE08ED00E010B5012174
:1017D000880700F01AF830B1012003490870012190
:1017E000800700F003F810BD0F000020CA430282FA
:1017F000704721B1028842F00102028004E00288B1
:101800004FF6FE731A400280704730B50246002042
:1018100000230024158A05EA0103958905EA0104DD
:1018200013B10CB1012000E0002030BD1AB1838952
:101830000B43838102E083898B4383817047018955
:101840004FF6F872114001817047000000220288B3
:101850001D4B98420ED01D4B98420BD0B0F1804FDB
:1018600008D01B4B984205D01A4B984202D01A4B15
:10187000984204D14FF68F731A404B881A43174B86
:10188000984207D0164B984204D04FF6FF431A40B7
:10189000CB881A4302808B8883850B8803850A4B8B
:1018A00098420BD0094B984208D00E4B984205D075
:1018B0000D4B984202D00D4B984201D10B7A038612
:1018C0000123838270470000002C01400034014056
:1018D0000004004000080040000C004000100040E0
:1018E0000014004000400140004401400048014015
:1018F0001FB501210846FFF737FE4FF08040FFF784
:101900009EFF0020ADF80A00ADF806004CF24F3003
:10191000ADF8080041F61F40ADF8040000208DF836
:101920000C0001A94FF08040FFF790FF0122114603
:101930009007FFF77BFF4FF4A060FFF757FB1C20D9
:101940008DF8000001208DF8030002208DF80100C1
:1019500001208DF802006846FFF710FB012188077F
:10196000FFF747FF1FBD00001D49098801F0200156
:1019700011B31B49091D0988C8B21A49098801F425
:101980000041C9B91749098801F4804161B10A28A9
:1019900003D00021134A118020E01249098841F444
:1019A0000041104A118019E00D2806D10D4909881F
:1019B00041F480410B4A118010E00A490988C1F3C3
:1019C0000D01094A505407490988491C054A1180EC
:1019D00011460988C72901DD0021118070470000E8
:1019E000003801402C0000206C00002010B540F2AF
:1019F00025510C4800F06DF898B10A4800F024F920
:101A0000C4B209480088B0F5967F02D30020064989
:101A10000880054801880088401C034A108003485C
:101A2000445410BD004400402E000020340100202A
:101A300010B540F22551154800F04BF820B313487B
:101A400000F002F9C4B2FE2C05D101201049087043
:101A500000201049087010480078042802D10020A6
:101A60000D4908700B480078012807D10A48017811
:101A70000078401C084A107008484454FD2C02D1DC
:101A800001200449087000BF10BD0000004800405C
:101A90000E0000200C0000200D0000200800002097
:101AA00021B1828942F40052828104E082894DF69C
:101AB000FF731A408281704702460020B1F5007F13
:101AC00000D100BF13880B400BB1012000E00020C3
:101AD000704770B50246002400230025002040F620
:101AE0006A16B14200D100BFC1F3421501F01F03D5
:101AF000012606FA03F3012D02D19689334006E050
:101B0000022D02D1168A334001E0968A33400C122E
:101B1000012606FA04F41688344013B10CB10120F2
:101B200000E0002070BDF0B503460024002600252B
:101B3000002040F66A17B94200D100BF1846C1F331
:101B4000421401F01F06012707FA06F5012C01D106
:101B50000C3004E0022C01D1103000E014301AB136
:101B600007682F43076002E00768AF430760F0BDD6
:101B70002DE9F04786B005460E460024A24600BF78
:101B8000A1460027B08900B100BF2F462C8A4CF631
:101B9000FF700440F08804432C82AC894EF6F310A9
:101BA0000440B08831890843718908430443AC81FB
:101BB000AC8A4FF6FF400440B0890443AC8201A8D0
:101BC000FFF7F2FC1F48874202D1DDF810A001E0C8
:101BD000DDF80CA0A88900F4004040B10AEBCA006F
:101BE00000EB0A1031684900B0FBF1F807E00AEB9E
:101BF000CA0000EB0A1031688900B0FBF1F86420DC
:101C0000B8FBF0F004012009642101FB1089A889C8
:101C100000F4004040B1322000EBC900B0FBF1F00D
:101C200000F00700044308E0322000EB09106421B3
:101C3000B0FBF1F000F00F0004432C8106B0BDE8CA
:101C4000F08700000038014001468888C0F3080092
:101C50007047C1F308028280704770B505460C4694
:101C600004E014F8011B284604F0A6F820780028A8
:101C7000F7D170BD00BFFEE7490050EAC12018BF90
:101C800004204A0D18BF40F0010040F2FF72B2EB91
:101C9000515F08BF40F00200012808BF05207047CF
:101CA0002DE9F0414F1E00EBC7010446D1E90001C8
:101CB00015461E4637F006020DD02A46334604F07C
:101CC000B5FB7F1E04EBC703D3E9002304F018F92A
:101CD00037F00602F1D1022F25D0042F13D0062FA2
:101CE00018BFBDE8F0812A46334604F09FFBD4E9D3
:101CF0000A2304F005F92A46334604F097FBD4E999
:101D0000082304F0FDF82A46334604F08FFBD4E99B
:101D1000062304F0F5F82A46334604F087FBD4E99D
:101D2000042304F0EDF82A46334604F07FFBD4E99F
:101D3000022304F0E5F82A46334604F077FBD4E9A1
:101D40000023BDE8F04104F0DBB800000022134698
:101D50001046014904F090B90000F03F012205F05F
:101D600046BA04F0CDB8002213461046114604F0DE
:101D700083B940F2013200204FF0E04105F037BA5C
:101D8000024A0020110705F032BA000001FDFFFFF2
:101D900030380A2801D2012070470020704700BF68
:101DA000704700002DE9FE4F07468846002668462A
:101DB00001F0A8FA002444E057F8240058F8241051
:101DC000A0EB010ABAF1000F01DB514601E0CAF1B4
:101DD0000001084605F006F883464FF08F4104F0F5
:101DE000CFFE81465DF82400002104F08BFF18D05F
:101DF0005DF82410484604F0C3FE82464FF07E5141
:101E000005F04EF9054600BF25F0004082460F4818
:101E1000416A504605F012F912D20120A040064353
:101E20000EE00A48C169484605F008F805D307489E
:101E3000016A484605F002F902D20120A04006439B
:101E4000641C032CB8DB3046BDE8FE8F047C000820
:101E50002DE9F04D8D4F21F0004A86B005460C4625
:101E6000BA452ADBAAEB070028430AD088488245F6
:101E700001DC1AD1CDB106B02846BDE8F04DFFF720
:101E80006DBF844A844B284604F0D0FA07460E46BC
:101E9000824A834B2846214604F0C8FA06B03A46E7
:101EA0003346BDE8F04D04F02BB80120FEF72EFCC0
:101EB00006B0BDE8F04DFFF756BF7A48824542DADA
:101EC000BAF1795F0BDA2846FFF7D6FE042808BF7F
:101ED000FFF756FF284606B02146BDE8F08D2A469A
:101EE0000B46104604F0A2FA834602466E480E46A0
:101EF0000B4606217844FFF7D3FE5A46334604F0DA
:101F000095FA804669488A465A4633460421784401
:101F1000FFF7C6FE5A46334604F088FA00223B46D5
:101F200003F0EEFF02460B464046514604F0A4F88B
:101F30002A46234604F07AFA06B02A462346BDE82C
:101F4000F04D03F0DDBF284624F0004100223D465D
:101F50003B4604F09FFB4FF0FF3205F048F9064680
:101F6000024653480F460B4606217844FFF798FE79
:101F700032463B4604F05AFACDE900014D4832465C
:101F80003B4604217844FFF78BFE32463B4604F083
:101F90004DFA00222B4603F0B3FF834602913046F0
:101FA000394603F033FD804643480D46504517DC63
:101FB000DDE900015A46029B04F05EF842462B46DA
:101FC00004F034FA42462B4603F09AFF012205F052
:101FD0000EF9304A304B04F04FFC304A304B4CE0A5
:101FE0004FF0000A52460B46404603F089FFCDE908
:101FF000031052462B461046194604F017FA324693
:102000003B4604F047FBDDE9033204F035F80646B1
:102010000F46DDE900015A46029B04F02DF8834685
:10202000009101223046394605F0E1F8194A1A4B71
:1020300004F030FB06460F4601224046294605F0D3
:10204000D6F85A46009B04F0F1F932463B4604F0BC
:1020500013FC06460F4601225046294605F0C7F8F4
:102060000E4DDFF858802A46434604F013FB3246F3
:102070003B4604F00FFB2A46434604F00BFB002CC2
:10208000D8BF81F0004106B0BDE8F08D0000F03F00
:102090000000F07F075C143326A6913C182D4454B1
:1020A000FB21F93F0000E03F406900005669000055
:1020B000CA680000E06800003333EF3FFB21E93FCE
:1020C0002DE9F84F04460D4621F000400091734978
:1020D000814211DC7249884201DC06D12CB12046D4
:1020E0002946BDE8F84FFFF739BE6E48002DCCBF3A
:1020F0006D496E49BDE8F88F6D49814211DD6D492A
:102100008142D8BF4FF0FF366DDD20462946FFF7EC
:10211000B3FD042808BFFFF733FE20462946BDE87B
:10212000F88F6549654F25F00045814233DD6449EC
:10213000814219DD002632464FF080432046294671
:1021400003F0DEFE80468A4601222046294605F03D
:102150004EF800223B4604F08FFB4246534603F004
:102160008BFF04460D463EE001260022BA463B4660
:102170002046294603F0C4FE80460F4600225346FF
:102180002046294604F078FB42463B4603F074FFA4
:1021900004460D4627E04B4981421BDDDFF828A1AC
:1021A0000226002253462046294604F03FF9002229
:1021B0003B4603F0A5FE80460F46002253462046CC
:1021C000294604F059FB42463B4603F055FF0446BE
:1021D0000D4608E0032622462B4600203B4903F02B
:1021E0004BFF04460D4622462B461046194604F086
:1021F0001DF98B46824602460B4604F017F9074646
:102200000246334888460B4606217844FFF748FDCE
:1022100052465B4604F00AF982462E488B463A46FF
:10222000434605217844FFF73BFD3A46434604F018
:10223000FDF802460B46002E504659460CDA03F0D4
:102240005FFE22462B4604F0F1F801B022462B46F1
:10225000BDE8F04F04F01EBA03F052FE22462B46B2
:1022600004F0E4F81C4A7A4402EBC603D3E90023E5
:1022700004F002FB22462B4604F0FEFA174A7A4489
:1022800002EBC603D3E9002304F004FA009A002A03
:10229000B8BF81F00041BDE8F88F00000000104495
:1022A0000000F07F182D4454FB21F93FFB21F9BFBA
:1022B0000000DC3F0000203E0000F33F0000F03F44
:1022C0000000E63F008003400000F83F0000F0BF40
:1022D0006A67000028670000C66600008E6600007E
:1022E0002DE9F04D9446CCF1000423F000464CEA71
:1022F0000404524F46EAD4749A46884621F00042BC
:10230000BC4206D8454240EA050442EAD474BC42C5
:1023100004D9BDE8F04D6246FFF723BDAAF1405550
:10232000A5F17F6555EA0C040BD0022404EAAA74D7
:10233000434DDFF810E144EAD87452EA000B04D0B0
:102340000CE0BDE8F04DFFF7BBBE002C14BF012C24
:10235000BDE8F08D022C30D0032C32D056EA0C0BA5
:102360000AD0BE4220D1BA4209D126F0804622F0DE
:1023700080423346114617E000291ADB25E0DFF8DA
:10238000C8B0FB44002C04BFDBE90001BDE8F08DC0
:10239000012C02BFDBE9000181F00041BDE8F08DB6
:1023A000022C0AD0032C0CD0BA4212D1B8F1000F83
:1023B0000BDA23482549BDE8F08D28462449BDE8BD
:1023C000F08D28467146BDE8F08D1D482149BDE8D5
:1023D000F08D921B12153C2AC4BF19481D490EDC12
:1023E000BAF1000FBEBF12F13C0F0020014606DB20
:1023F000624603F041FE21F00041FFF761FE002C30
:1024000008BFBDE8F08D012C04BF81F00041BDE89C
:10241000F08D114A114B022C07D004F02DFA2A46F8
:10242000BDE8F04D0A4B04F027BA04F025FA2A461D
:10243000BDE8F04D064B04F02DB900000000F07F20
:10244000182D4454FB2109C022660000FB21F9BF6E
:10245000FB210940FB21F93F075C143326A6A13C70
:10246000F0B5CDB004460D4616461F462B46224613
:10247000074902A8CDE90067FDF7E0FE02A905A023
:10248000FDF7D0FE04A102A800F096FE4DB0F0BD0D
:10249000B0890008257300004F4B000030B5CBB069
:1024A00004460D462B46224604496846FDF7C6FE03
:1024B00003A1684600F080FE4BB030BDA08A000842
:1024C0004F4B000008B501210820FFF75DF84FF4DD
:1024D0008050ADF8000010208DF8030003208DF827
:1024E000020069460448FEF71CFA01221103024863
:1024F000FEF7A2FA08BD0000000C01402DE9F041F2
:102500000446E07800F0C006E07800F03F0560780F
:1025100000F0010098B1EF102846E91705EB517162
:10252000C910A5EBC101491C01F0FF080B48006868
:1025300020B10A48414602683846904700BF60789B
:1025400000F0080030B10548406818B1B011034AE6
:10255000516888470020BDE8F0810000A0060020F7
:102560004FF0E021096941F004014FF0E0221161D0
:10257000054908601146096941F0010111616FF0D8
:1025800070415161704700002400002010B50446DE
:102590004FF47A7104FB01F000F002F810BD000066
:1025A00070B5034600224FF0E02675690D4E36687F
:1025B00003FB06F44FF0E026B16910E04FF0E0268F
:1025C000B06988420BD0884202D20E1A324402E02F
:1025D0002E1A0E4432440146A24200D300E0EDE739
:1025E00000BF70BD2400002038B5044664B120202F
:1025F0008DF8000028208DF8010030208DF80200B1
:1026000038208DF8030004E0A32204216846FDF77A
:1026100093FF6A46042140F69E2002F039FC02F046
:1026200023F838BD3EB5044602208DF80000CA20CC
:102630008DF80100E3208DF8020009208DF80300D9
:102640006A460421682002F023FCA3208DF80000D4
:1026500004F0400048B1C0208DF80100C8208DF87A
:102660000200C2208DF8030006E0A3208DF80100CF
:102670008DF802008DF8030004F4C07048B1C42046
:102680008DF80400CC208DF80500C6208DF80600DA
:1026900006E0A3208DF804008DF805008DF80600F3
:1026A000A3208DF807008DF808008DF809006A4610
:1026B0000A2140F6A72002F0EBFB04F0030018B15A
:1026C00020208DF8000002E0D8208DF800006A4636
:1026D000012140F6B62002F0DBFB04F0200018B127
:1026E000012000F0ADF802E0002000F0A9F804F4A9
:1026F000C07008B304F4807060B1B2208DF800009F
:102700008B208DF80100B6208DF802009B208DF8FB
:1027100003000BE0B0208DF8000080208DF8010050
:10272000B4208DF8020090208DF803006A46042141
:1027300040F6A22002F0ACFB04F0010020B3F82028
:102740008DF800006A4601214FF40B6002F0A0FBF7
:10275000FA21072000F02CFC072000F0F3FB0120F9
:1027600000F013FC642000F0F3FC4FF4FA7000F06A
:1027700002FDC821304800F0A3FB282000F0BCFB7C
:102780000A2000F0CCFB08E0D8208DF800006A4653
:1027900001214FF40B6002F07BFB04F0020018B142
:1027A000D9208DF8000002E0D8208DF800006A469C
:1027B000012140F23D7002F06BFB04F0040018B1FF
:1027C000012000F069F802E0002000F065F804F054
:1027D000100018B10120FFF707FF02E00020FFF70B
:1027E00003FF44F008001549488101F03DFF002037
:1027F0001249887304F0400018B10846807B801DA0
:10280000887304F4C07020B10C48807B801D0B4994
:10281000887304F0140020B10848807B1030074909
:10282000887304F0030020B10448807B001D034935
:10283000887300203EBD000009E3CA02A006002004
:102840003EB504466CB10EA1D1E900208968CDE9FE
:10285000002002916A4609214FF4976002F018FBAC
:102860003EBD0AA2D2E900109268CDE901020091B2
:102870006A4609214FF4976002F00AFBF0E7000076
:10288000B8AAB38DB4980D355D000000B8AAAAAA05
:10289000B088C3C5C700000038B5044664B1C02085
:1028A0008DF80000C2208DF80100C4208DF80200D0
:1028B000C6208DF8030004E08B2204216846FDF752
:1028C0003BFE6A46042140F6982002F0E1FA01F04E
:1028D000CBFE38BD10B5C8234FF48062024940F6E4
:1028E000F63001F055FD10BD2C7C00082DE9F04FAD
:1028F0008DB00746884615469946DDE9166B0024DB
:10290000002030806B49887B5A4605A901F00CFEF7
:1029100018B1601E0DB0BDE8F08F6648807A00F0F7
:102920001400002867D09DF8140000069DF81510CB
:1029300040EA01409DF8161040EA01209DF817106A
:10294000084328609DF8180000069DF8191040EA19
:1029500001409DF81A1040EA01209DF81B10084321
:1029600068609DF81C0000069DF81D1040EA0140BB
:102970009DF81E1040EA01209DF81F100843A86032
:102980009DF8200000069DF8211040EA01409DF8C6
:10299000221040EA01209DF823100843E86004F16A
:1029A0001000C4B2286800140190686800140290F6
:1029B000A86800140390E86800140490019840434C
:1029C000029901FB0100039901FB0100049901FB3D
:1029D000010ABAF1706F02DBBAF1885F05DD01F020
:1029E00043FE00203080401E94E7B6F9000040F41A
:1029F0008070308000BF2F48807A00F0400020B304
:102A000005A9601C085C095D40EA012000B2A8F835
:102A1000000005A9E01C095C05AAA01C105C41EAA5
:102A2000002000B2A8F8020005A9601D095C201D65
:102A3000105C41EA002000B2A8F80400A01DC4B256
:102A4000B6F9000040F0080030801A48408900F4D0
:102A5000C07008B305A9601C085C095D40EA01204C
:102A600000B2388005A9E01C095C05AAA01C105C16
:102A700041EA002000B2788005A9601D095C201D94
:102A8000105C41EA002000B2B880A01DC4B2B6F9C3
:102A9000000040F0700030800648807A00F00300AB
:102AA00018B105A90819FFF729FD484601F002F9F8
:102AB00000202FE7A006002070B588B0064601A8C8
:102AC00001F0BAFABDF804000021C90341EA5045FB
:102AD000C4034448007A00F0030056F82000059033
:102AE0004048007A00F0040010B10598404205907B
:102AF0003C48007AC0F3C10056F8200006903948DF
:102B0000007A00F0200010B1069840420690354847
:102B1000007AC0F3811056F82000079031480089F0
:102B200000F4807010B10798404207900598C117D3
:102B3000A0FB042301FB043100FB0510810041EAE6
:102B4000927005900698C117A0FB042301FB043185
:102B500000FB0510810041EA927006900798C117AA
:102B6000A0FB042301FB043100FB0510810041EAB6
:102B7000927007900598000E8DF808000598000CDB
:102B80008DF809000598000A8DF80A000598C0B272
:102B90008DF80B000698000E8DF80C000698000CBE
:102BA0008DF80D000698000A8DF80E000698C0B248
:102BB0008DF80F000798000E8DF810000798000C94
:102BC0008DF811000798000A8DF812000798C0B21E
:102BD0008DF8130002AA0C214FF4257002F058F969
:102BE00008B070BDA006002030B585B0044616A21E
:102BF00007CA02AB07C3C82C03DD4FF0FF3005B096
:102C000030BDC82090FBF4F0401E85B2280A8DF834
:102C10000000E8B28DF801006A46022140F2162059
:102C200002F036F910B14FF0FF30E8E702AA0C21AC
:102C300040F6C12002F02CF910B14FF0FF30DEE772
:102C4000044884810020DAE7FEF2ABC4AAF1DFDF9A
:102C5000BBAFDFDFA00600201FB504464848007A5E
:102C600000F0030054F8200001904548007A00F07D
:102C7000040010B10198404201904148007AC0F32D
:102C8000C10054F8200002903D48007A00F0200076
:102C900010B10298404202903948007AC0F3811086
:102CA00054F8200003903648008900F4807010B179
:102CB0000398404203903349019880FB0101800F43
:102CC00040EA810001902F49029880FB01108200A8
:102CD00042EA917002902B49039880FB0110820018
:102CE00042EA917003900198000E8DF8000001985F
:102CF000000C8DF801000198000A8DF8020001987F
:102D0000C0B28DF803006A4604214FF4747002F0DB
:102D1000BFF818B14FF0FF3004B010BD0298000E9C
:102D20008DF800000298000C8DF801000298000A4E
:102D30008DF802000298C0B28DF803006A460421A3
:102D40004FF4757002F0A4F810B14FF0FF30E3E7D4
:102D50000398000E8DF800000398000C8DF8010018
:102D60000398000A8DF802000398C0B28DF80300A2
:102D70006A4604214FF4767002F08AF8CCE700002E
:102D8000A006002009E3CA0210B586B0044647A099
:102D90000068039046A00068029046A00068019079
:102DA00045A00068009004F0030003A9085C8DF8BA
:102DB000140003A8C4F3C101405C8DF8150003A8FA
:102DC000C4F38111405C8DF8160004F0030002A9E1
:102DD000085C8DF8100002A8C4F3C101405C8DF8B6
:102DE000110002A8C4F38111405C8DF8120005AAFD
:102DF000032140F2264002F04BF818B14FF0FF30AB
:102E000006B010BD04AA032140F22A4002F040F8A7
:102E100010B14FF0FF30F3E701980590009804904F
:102E200004F0040058B19DF8140040F001008DF842
:102E300014009DF8100040F001008DF8100004F01F
:102E4000200058B19DF8150040F001008DF81500E4
:102E50009DF8110040F001008DF8110004F480701D
:102E600058B19DF8160040F001008DF816009DF84D
:102E7000120040F001008DF8120005AA03214FF462
:102E8000886002F005F810B14FF0FF30B8E704AAEF
:102E9000032140F2314001F0FBFF10B14FF0FF3051
:102EA000AEE7064804810020AAE700004CCD6C0084
:102EB0000CC92C003656760026466600A006002077
:102EC000F8B505460E464FF47A7095FBF0F000FB1E
:102ED00006F4200E8DF80000200C8DF80100200A69
:102EE0008DF80200E0B28DF803006A4604214FF429
:102EF000AE7001F0CDFFF8BD38B50446052094FB57
:102F0000F0F084B220128DF80000E0B28DF80100DC
:102F10006A4602214FF4AD7001F0BAFF38BD38B5F2
:102F20000446052094FBF0F084B220128DF80000D6
:102F3000E0B28DF801006A4602214FF4AC7001F056
:102F4000A7FF38BD38B504460020009004F001000A
:102F500020B19DF8000040F03000009004F0020025
:102F600020B19DF8000040F00C00009004F0040037
:102F700020B19DF8000040F0030000906A46012156
:102F80004FF4A47001F084FF38BD38B50446012C1D
:102F900001DA012402E0042C00DD0424601EC0B22A
:102FA00000906A46012140F24F1001F071FF38BDD8
:102FB0002DE9FC4706460F4606F0070010B1B7F5AD
:102FC000C86F03DD4FF0FF30BDE8FC87384603F0E3
:102FD00021FF8146594903F0D3FD8046684601F040
:102FE00005F89DF80000022806D0042816D008280D
:102FF00026D0102848D135E04FF08D41404603F0EF
:1030000051FF814603F0CEFE84B24D49404603F0A5
:1030100049FF814603F0C6FE85B238E04FF08C418F
:10302000404603F03FFF814603F0BCFE84B24549B1
:10303000404603F037FF814603F0B4FE85B226E038
:103040004FF08B41404603F02DFF814603F0AAFE6E
:1030500084B23D49404603F025FF814603F0A2FEBD
:1030600085B214E04FF08A41404603F01BFF8146D1
:1030700003F098FE84B23549404603F013FF8146C1
:1030800003F090FE85B202E04FF0FF309CE700BFF6
:1030900020128DF80400E0B28DF8050028128DF89A
:1030A0000600E8B28DF8070006F00100A0B101AA01
:1030B00002214FF4EA7001F0EBFE10B14FF0FF3047
:1030C00082E70DF1060202214FF4927001F0E0FE5A
:1030D00010B14FF0FF3077E706F00200A0B101AA6F
:1030E00002214FF4EC7001F0D3FE10B14FF0FF302D
:1030F0006AE70DF1060202214FF4947001F0C8FE58
:1031000010B14FF0FF305FE706F00400A0B101AA54
:1031100002214FF4EE7001F0BBFE10B14FF0FF3012
:1031200052E70DF1060202214FF4967001F0B0FE55
:1031300010B14FF0FF3047E7002045E7000048435B
:10314000000040460000C045000040450000C0446B
:1031500038B50446052094FBF0F085B228128DF8AE
:103160000000E8B28DF801006A4602214FF4EF70CA
:1031700001F08EFE38BD38B50446052094FBF0F012
:1031800085B228128DF80000E8B28DF801006A4679
:1031900002214FF4ED7001F07BFE38BD10B54FF405
:1031A00096710348FDF7D0F900200249088010BD50
:1031B000340100202E00002070B504460D464FF467
:1031C000FA76FFF7EBFF21460B48FEF746FD0CE0D1
:1031D00000F070F830B929460848FDF76FF908B1DA
:1031E000002070BD0A20FFF7D1F9301EA6F10101C1
:1031F0008EB2EDD10120F4E70044004034010020FC
:1032000010B586B0044601210420FEF7BDF9012166
:103210004804FEF7A9F90420ADF8140018208DF831
:10322000170003208DF8160005A92048FDF779FB4B
:103230000820ADF8140004208DF8170003208DF845
:10324000160005A91948FDF76CFB01940020ADF8A4
:103250000800ADF80A00ADF80C000C20ADF80E0027
:103260000020ADF8100001A91148FEF781FC0121F2
:103270000F48FEF715FC4FF4A060FDF7B7FE2620BF
:103280008DF8000000208DF801008DF8020001206B
:103290008DF803006846FDF771FE012240F22551CA
:1032A0000348FEF740FC06B010BD000000080140D6
:1032B000004400400A48008808B9012070470848C7
:1032C000008808490988884203D100200449088001
:1032D000F4E703480088034908800120EEE7000076
:1032E0002E0000203000002000BF054A128802F0A6
:1032F0004002002AF9D0C2B2014B1B1D1A80704750
:10330000003801407CB5054628494968087801AB7A
:1033100004220D21FDF72FFD08B107207CBD9DF88B
:103320000700C0F301109DF8041001F0E00140EA2D
:10333000E1008DF800009DF80700C0F381009DF8C2
:10334000051001F0E00140EAE1008DF801009DF870
:10335000070000F003009DF8061001F0E00140EACC
:10336000E1008DF8020000241CE01DF8040018B9EB
:10337000002045F8240013E00D4845F8240006E03D
:1033800055F824000B4903F08DFD45F824001DF885
:103390000400401EC0B20DF804000028F0D100BFA8
:1033A000601CC4B2032CE0DB0020B7E7340000202F
:1033B0007B14AE3E1D5A843F2DE9F04F87B0054681
:1033C0000C46914601208DF8100000208DF8110068
:1033D000FE4A1268917CFD4A5268107804AB0222C2
:1033E000FDF798FD20B14FF0FF3007B0BDE8F08F3A
:1033F000C820FFF7CBF800208DF81000F34A1268C0
:10340000D17BF24A5268107804AB0122FDF782FDAD
:1034100010B14FF0FF30E8E7EC4A12685179EB4AFF
:103420005268107804AB0122FDF774FD10B14FF023
:10343000FF30DAE7E54A1268917CE44A5268107876
:1034400004AB0122FDF766FD10B14FF0FF30CCE771
:10345000DE4A1268D17DDD4A5268107804AB012241
:10346000FDF758FD10B14FF0FF30BEE7D74A1268A4
:103470001179D64A5268107804AB0122FDF74AFD53
:1034800010B14FF0FF30B0E70C208DF81000CF4A9C
:1034900012681179CD4A5268107804AB0122FDF709
:1034A00039FD10B14FF0FF309FE70F20FFF76EF8A6
:1034B000C648806A407A8DF81000C44A1268917834
:1034C000C24A5268107804AB0122FDF723FD10B107
:1034D0004FF0FF3089E7BD48806A007A8DF8100010
:1034E000BA4A12685178B94A5268107804AB01227E
:1034F000FDF710FD10B14FF0FF3076E7B9F1000F86
:1035000007D0B248806A807A40F0E0008DF8100061
:1035100004E0AE48806A807A8DF81000AB4A1268E9
:103520009179AA4A5268107804AB0122FDF7F2FCA7
:1035300010B14FF0FF3058E7B9F1000F07D0A348A2
:10354000806AC07A40F0E0008DF8100003E0A048E7
:10355000C07A8DF810009D4A1268D1799B4A526852
:10356000107804AB0122FDF7D5FC10B14FF0FF300D
:103570003BE7B9F1000F02D0C820FFF707F8402061
:103580008DF81000914A12681179904A52681078AB
:1035900004AB0122FDF7BEFC10B14FF0FF3024E771
:1035A00078208DF81000894A12685179874A52684C
:1035B000107804AB0122FDF7ADFC10B14FF0FF30E5
:1035C00013E783498889FEF7E1FF00208DF810009A
:1035D0007E4A126851797D4A5268107804AB012204
:1035E000FDF798FC10B14FF0FF30FEE6774A126805
:1035F000917A764A5268107804AB0222FDF7BBFB41
:1036000010B14FF0FF30F0E69DF811009DF810105A
:1036100040EA012B0C209BFBF0F0C6B20020A86012
:1036200068602860A06060602060824665E0674A4C
:103630001268D17A654A5268107804AB0C22FDF703
:103640009AFB10B14FF0FF30CFE69DF811009DF8C6
:10365000101040EA012000B2ADF808009DF81300F8
:103660009DF8121040EA012000B2ADF80A009DF862
:1036700015009DF8141040EA012000B2ADF80C00CE
:10368000BDF90810206808442060BDF90A10606880
:1036900008446060BDF90C10A0680844A0609DF863
:1036A00017009DF8161040EA012000B2ADF80000A6
:1036B0009DF819009DF8181040EA012000B2ADF8FD
:1036C00002009DF81B009DF81A1040EA012000B28C
:1036D000ADF80400BDF90010286808442860BDF961
:1036E0000210686808446860BDF90410A8680844BE
:1036F000A8600AF1010000F0FF0AB24597DB3448E8
:10370000D0F800C02868C117090441EA1041070435
:10371000624600233846FCF760FD32460023CDE9BF
:103720000201FCF75AFD28602948D0F800C06868FB
:10373000C117090441EA10410704624600233846D4
:10374000FCF74BFD32460023CDE90201FCF745FDB5
:1037500068601F48D0F800C0A868C117090441EA92
:1037600010410704624600233846FCF736FD324616
:103770000023CDE90201FCF730FDA8601448D0F821
:1037800004C02168C817000440EA11480F046246CB
:10379000002338464146FCF720FD32460023CDE9A0
:1037A0000201FCF71AFD20600948D0F804C06068E7
:1037B000C117090441EA1041070462460023384654
:1037C000FCF70BFD3246002304E00000340000202B
:1037D000047C0008CDE90201FCF7FFFC60601148A1
:1037E000D0F804C0A068C117090441EA10410704D9
:1037F000624600233846FCF7F0FC32460023CDE950
:103800000201FCF7EAFCA060A068002804DDA068C3
:10381000A0F58030A06003E0A06800F58030A060D3
:103820000020E2E5047C00082DE9FC5F074688469D
:1038300000263F494968087801AB03220D21FDF7B6
:103840009AFA10B10720BDE8FC9F9DF8040000F033
:103850001F008DF804009DF8050000F01F008DF892
:1038600005009DF8060000F01F008DF806000024FA
:1038700059E057F8240058F82410A0EB010BBBF1D5
:10388000000F01DB594601E0CBF10001084603F0CF
:10389000A9FA4FF08F41009003F072F9824601A817
:1038A000005D78B32349086803F0B4FA83465946AB
:1038B000214803F065F9814604E02049484603F0B9
:1038C000F1FA814601A8005D401EC0B201A9085569
:1038D0000028F2D14946504603F052F983464FF092
:1038E0007E5103F0DDFB054600BF25F00040834616
:1038F00010488169584603F0A1FB13D20120A04073
:1039000006430FE0FFE70B480169504603F096FAC3
:1039100005D308484169504603F090FB02D20120CC
:10392000A0400643641C032CA3DB30468BE7000059
:1039300034000020047C000800B04C4554E3853F6F
:1039400010B50446204600F00FF80346E01C00F0D6
:103950000BF843EAC00083B2A01D00F005F843EA6B
:10396000801083B2184610BD014691F90020002A4C
:1039700001DD00201EE091F90020002A01DA042078
:1039800018E091F90120002A01DD012012E091F9EF
:103990000120002A01DA05200CE091F90220002A1A
:1039A00001DD022006E091F90220002A01DA06205A
:1039B00000E00720704700008CB0092002F070F989
:1039C0004820FEF7CDFD4FF4E131482002F004FA23
:1039D000FDF7DAFB4FF4E130FFF712FC4FF4E13072
:1039E00002F096F9FEF76EFD97A0FCF71BFCFDF7C1
:1039F0004DF94FF47A70FEF7C9FD93A0FCF712FC65
:103A000002E0C820FEF7C2FD00F0A0FA0028F8D1BD
:103A10008DA0FCF707FC08238DA200210846FDF7C6
:103A200037FD8FA210210020FDF740FC8EA220213F
:103A30000020FDF73BFC8EA230210020FDF736FC74
:103A4000FDF73EFDFDF754FFFDE009AA0AA90BA80A
:103A500000F06AF9002872D106AA07A908A8FCF7A5
:103A6000F2FFBDF9180002F08EFC044600224FF070
:103A7000804301F04DFACDE90001BDF91C0002F0D0
:103A800082FC064600224FF0804301F041FA0446D2
:103A90000D46BDF9200002F076FC064600224FF0EC
:103AA000804301F035FA804622462B4602F028FA80
:103AB0008246DDE9002302F023FACDE9020101F09C
:103AC000A5FFCDE9040102F02FFC6B4908600B98BB
:103AD00002F0BCFF21F0004104460022674B02F0D7
:103AE000A3FD15D30A9802F0B1FF21F0004104466E
:103AF0000022624B02F098FD0AD3099802F0A6FF5B
:103B000021F00041044600225C4B02F08DFD03D2FF
:103B100001205B49087002E00020594908705648AE
:103B2000006845F6D811884205DC5348006842F623
:103B3000E061884204DA01205249087003E019E08C
:103B40000020504908704F48007810B94C48007860
:103B500040B101204C490870002201034B48FCF79A
:103B60006BFF07E000204849087001221103474815
:103B7000FCF762FF082001230090434802783021BF
:103B80000846FDF75FFC424800783F4909788842C3
:103B900011D03F48007838B900BF3EA13EA0FEF7E3
:103BA0007DFC0028F9D106E000BF3DA13AA0FEF758
:103BB00075FC0028F9D13448007808B1012000E0F4
:103BC00000203349087037480078012828D10020A8
:103BD000344908703449087008200090334802784E
:103BE000032300211820FDF72DFC082000902F480A
:103BF0004278032310212020FDF724FC08200090A8
:103C00002A488278032320210846FDF71BFC082060
:103C100000902648C278022300216020FDF712FCA4
:103C20002348007801280CD100202149087000BFEA
:103C30001E4CA3786278E1782078FEF711FC00280A
:103C4000F6D1FDF73DFC00E74F4B0D0A00000000E8
:103C500048523A2020202F737030323A0000000082
:103C6000CAD5CBF5D1B90000CAE6D5C5D1B9000097
:103C7000B5F8B5B900000000040000200000444081
:103C8000010000200200002000000020000C014084
:103C9000030000203100000064696564616F00006A
:103CA000300000000E0000200D0000200800002061
:103CB0000F0000207047000070B50446002624F075
:103CC0000104184890F8240008B1002070BD154880
:103CD000807A10B94FF0FF30F8E71248057C807AFF
:103CE0002040104908740846007CA04202D04FF0E2
:103CF000FF3600E0002614B90A48007D18B1012003
:103D000001F03CFE02E0002001F038FE3CB100F082
:103D1000ABFC20B1034805744FF0FF30D6E73046C6
:103D2000D4E70000340000202DE9F04F99B004469C
:103D30000D4616464FF07E574FF000084FF0000931
:103D40004FF0000A12A813A918AB0EAACDE9001073
:103D500014A916A8FEF7CAFD18B1012019B0BDE8D4
:103D6000F08FBDF84C0000F4807000287ED00E98D3
:103D700003F038F883464FF09D4102F001FF0746FB
:103D80000F9803F02FF883464FF09D4102F0F8FEA4
:103D90008046109803F026F883464FF09D4102F0CC
:103DA000EFFE8146119803F01DF883464FF09D41C8
:103DB00002F0E6FE824639464FF0804003F072F88A
:103DC0004946059003F06EF8414607904FF0404099
:103DD00003F068F85146059003F064F806900799DF
:103DE00002F060FE834602F031FECDE90801FEF7E5
:103DF0002FF84FF06632544BCDE90A0102F016FB62
:103E0000CDE90C0102F04AF8206049464FF08040AD
:103E100003F048F84946029003F044F84146049004
:103E20004FF0404003F03EF84146029003F03AF86C
:103E30000390049903F034F983464FF07E5102F069
:103E400031FE059002F002FECDE9080139464FF03F
:103E5000804003F027F84146039003F023F84946D9
:103E600004904FF0804003F01DF800E068E05146F8
:103E7000039003F017F88346049902F013FE0590AF
:103E800002F0E4FDCDE90601DDE90823FEF728FA9A
:103E90004FF066322C4BCDE90A0102F0C7FACDE9AA
:103EA0000C0101F0FBFF28605146504602F0FAFF7A
:103EB00049460490484602F0F5FF414603904046CB
:103EC00002F0F0FF39460190384602F0EBFF009017
:103ED000019902F0E7FD0290039903F0E1F88346AF
:103EE000049903F0DDF8059002F0B0FDCDE908017A
:103EF0005146384602F0D6FF49460490404602F04B
:103F0000D1FF0390049902F0CDFD4FF08041059060
:103F100002F0C8FF834602F099FDCDE90601DDE914
:103F20000823FEF7DDF94FF06632074BCDE90A01B1
:103F300002F07CFACDE90C0101F0B0FF306001E045
:103F400002200BE7002009E766A64C4070B500246C
:103F5000FCF7C2FD00F024F9002840D1782000F0E1
:103F60002FFFC4B20CB1012070BD7820FFF7A4FE72
:103F7000C4B20CB10220F7E7642000F0D3FEC4B253
:103F80000CB10320F0E7FEF7A5FCC4B20CB104208D
:103F9000EAE71548FFF7D4FC0546FEF7F5FEC4B284
:103FA0000CB10520E0E740F27310FEF73BFBC4B212
:103FB0000CB10620D8E76420FEF716FEC4B20CB19F
:103FC0000720D1E701F090FC04460CB10820CBE7B4
:103FD000012000F0A3FDC4B21CB10920C4E70A20EF
:103FE000C2E70020C0E70000600000200146114841
:103FF000407A30B1012807D0022808D003280CD11C
:1040000008E0022008700BE00420087008E0082097
:10401000087005E01020087002E04FF0FF30704794
:1040200000BF0448C07C18B108784006000E087034
:104030000020F4E73400002001461348407A30B1F4
:10404000012808D002280AD0032810D10BE04FF431
:10405000804008800EE041F69C7008800AE04FF432
:104060008050088006E04FF40060088002E04FF0C6
:10407000FF30704700BF0448C07C10B10888401072
:1040800008800020F5E700003400002001460248C7
:10409000007C0870002070473400002001460F4863
:1040A000007A30B1012807D0022809D003280FD1A7
:1040B0000AE0FA2008800EE04FF4FA7008800AE067
:1040C0004FF47A70088006E04FF4FA60088002E04E
:1040D0000020088000BF00BF00207047340000208F
:1040E00001460E48007A30B1012807D0022808D0D6
:1040F00003280CD108E00A4808600BE00948086072
:1041000008E00948086005E00848086002E04FF050
:10411000FF30704700BF0020FBE7000034000020A4
:1041200000000343000083423333034233338341AF
:1041300001461248C07A082817D2DFE800F01704B9
:10414000070A0D101318BC20088013E062200880B5
:1041500010E02A2008800DE0142008800AE00A20E0
:10416000088007E00520088004E000BF00BF0020B1
:10417000088000BF00BF002070470000340000200E
:104180000146064890F8240010B14FF0FF30704708
:104190000248C08908800020F9E7000034000020B0
:1041A0001CB580208DF80000654A1268917C644A35
:1041B000526810786B460122FCF7ACFE10B14FF04C
:1041C000FF301CBD6420FEF7E1F900208DF80000EF
:1041D0005B4A1268917C5A4A526810786B460122F9
:1041E000FCF798FE10B14FF0FF30EAE7544A12682E
:1041F000917D534A526810786B460622FCF7BBFD4E
:1042000010B14FF0FF30DCE79DF80500C007400F0C
:104210009DF8031001F0010140EA41009DF80110F2
:1042200001F0010140EA010494B1012C03D1012104
:104230004348C17431E0022C03D100214048C174CD
:104240002BE021463FA0FBF7EDFF4FF0FF30B8E732
:104250003B4A1268D1783A4A526810786B4601227C
:10426000FCF789FD10B14FF0FF30AAE79DF8000080
:1042700000F00F042CB93D48FBF7D4FF4FF0FF309E
:104280009FE7042C06D13AA0FBF7CCFF01212C4874
:10429000C17402E000212A48C174FF2128488172BC
:1042A000FF2027490872FF2125484172C1724FF64D
:1042B000FF71C181FF21017481740121017380F8B4
:1042C0002210002180F8231041750175163001601D
:1042D00041608160163880F8241080F82510C18470
:1042E0004FF4FA6000F062FC10B14FF0FF3068E765
:1042F000022000F02BFB10B14FF0FF3061E72A20C5
:1043000000F0CEFC10B14FF0FF305AE7322000F041
:1043100009FD10B14FF0FF3053E70020FFF7CCFC50
:1043200010B14FF0FF304CE7002000F051FB10B10E
:104330004FF0FF3045E7002000F042FD002040E74D
:1043400034000020556E737570706F727465642050
:10435000736F6674776172652070726F64756374D1
:10436000207265762025642E0A000000588B000814
:1043700048616C662073656E7369746976697479D7
:10438000207061727420666F756E642E0A000000E2
:104390002DE9F04385B005460E46904699462948DA
:1043A00090F8250020B14FF0FF3005B0BDE8F08354
:1043B00016B94FF0FF30F8E7002423E0281B10283F
:1043C00001DD102000E0281B87B232193946204653
:1043D00000F05EFD10B14FF0FF30E6E701AA39466C
:1043E000204600F001F910B14FF0FF30DDE7301941
:1043F0003A4601A9FCF774F810B16FF00100D4E758
:10440000E01984B2AC42D9DB4FEA28208DF80000D5
:1044100008F0FF008DF801000A4A1268917E094AEF
:10442000526810786B460222FCF774FD10B14FF011
:10443000FF30BAE70121034880F82510A0F8269044
:104440000020B2E73400002038B50446282C02DDF5
:104450004FF0FF3038BDDCB9002000F0EBFB00204E
:104460008DF8000007208DF801002E4A1268917C1B
:104470002C4A526810786B460222FCF74BFD10B1B3
:104480004FF0FF30E6E70021264801750020E1E704
:10449000012000F0CFFB20208DF80000012C06D178
:1044A00000208DF80100052000F0FAFB17E0052C34
:1044B00006DC01208DF80100052000F0F1FB0EE084
:1044C000142C06DC02208DF801000A2000F0E8FB25
:1044D00005E003208DF80100142000F0E1FB9DF8B9
:1044E0000100072101EB8010C0B28DF801000D4AD8
:1044F0001268917C0B4A526810786B460222FCF7D6
:1045000009FD10B14FF0FF30A4E708210548817282
:1045100000210173012101750020FFF7CDFB002070
:1045200098E7000034000020F8B504460F46164610
:104530002C4890F8240010B94FF0FF30F8BD2948FE
:10454000807A10B94FF0FF30F8E7264A1268917A66
:10455000244A526810786B460222FCF70CFC10B11A
:104560004FF0FF30EAE79DF801009DF8001040EAA7
:104570000125A54203DA00203070401EDEE719480D
:1045800040684088B5EB600F17DD164A1268517C11
:10459000144A526810786B460122FCF7ECFB10B10C
:1045A0004FF0FF30CAE79DF8000000F0100020B186
:1045B00000F05AF86FF00100C0E7E2B2094B1B6847
:1045C000D97A084B5B6818783B46FCF7D4FB10B1EE
:1045D0004FF0FF30B2E795FBF4F0401E3070002042
:1045E000ACE7000034000020F8B504460D4616463E
:1045F00016B94FF0FF30F8BD1A48807A10B94FF065
:10460000FF30F8E720128DF80000E0B28DF80100CD
:104610009DF801002844134949684989884202DD10
:104620004FF0FF30E7E70F4A1268117E0D4A5268DB
:1046300010786B460222FCF76DFC10B14FF0FF3092
:10464000D9E7EAB2074B1B68597D064B5B681878BF
:104650003346FCF790FB10B14FF0FF30CBE7002062
:10466000C9E700003400002008B57048807A10B90E
:104670004FF0FF3008BD002000906C4A1268D17BDB
:104680006A4A526810786B460122FCF743FC10B16D
:104690004FF0FF30EEE7654A12685179634A52687D
:1046A00010786B460122FCF735FC10B14FF0FF305B
:1046B000E0E75E4A126811795C4A526810786B46EE
:1046C0000122FCF727FC10B14FF0FF30D2E757482A
:1046D00090F82400002853D00C200090534A126810
:1046E0001179524A526810786B460122FCF712FC8D
:1046F00010B14FF0FF30BDE73220FDF747FFC0207B
:1047000000904A48807A00F0010020B19DF8000036
:1047100040F020000090454A12681179434A5268DF
:1047200010786B460122FCF7F5FB10B14FF0FF301B
:10473000A0E73E48407C10B10220009001E000203C
:1047400000903A4A1268D17B384A526810786B461A
:104750000122FCF7DFFB10B14FF0FF308AE70020A9
:104760000090324A12685179304A526810786B468C
:104770000122FCF7CFFB002855D04FF0FF3079E73E
:1047800004200090294A12681179284A526810784A
:104790006B460122FCF7BEFB10B14FF0FF3069E71A
:1047A0002248807C20B92148807A00F0010010B9AD
:1047B0004020009001E0602000901C4A12681179AE
:1047C0001A4A526810786B460122FCF7A3FB10B11D
:1047D0004FF0FF304EE73220FDF7D8FE1348407C03
:1047E00010B10120009001E0002000900F4A1268F3
:1047F000D17B0E4A526810786B460122FCF78AFB87
:1048000010B14FF0FF3035E7084A12685179074A76
:1048100052681078054B10330122FCF77BFB10B176
:104820004FF0FF3026E7002024E70000340000208E
:104830002DE9F04F8DB083460F4602200C90424880
:1048400090F8240020B1002000F068F9012600E073
:10485000002603A8FFF722FC05A8FFF7C7FB01A865
:10486000FFF766FC02A8FFF78BFC374890F80AA018
:1048700004A8FFF70BFC002407E000223946584645
:10488000FEF79AFD00B902E0641C022CF5DB00BFC4
:10489000022C01D1002528E0002407E0012206A90E
:1048A00009A8FEF789FD00B902E0641C022CF5DBC3
:1048B00000BF022C01D1002517E006A93846FDF7FC
:1048C00071FA00F0FF0809A95846FEF7ADFF00F0A5
:1048D000FF090025B9F1000F01D145F00105B8F13C
:1048E000000F01D145F0020500BFFF2016490872F4
:1048F000FF2115484172C1724FF6FF71C181FF213E
:104900008172017401210173BDF80C0000F04EF9B1
:104910009DF8140000F01AF8BDF8040000F0C0F98A
:10492000BDF8080000F0FEF9504600F049FA9DF885
:104930001000FFF7C1F916B1012000F0EFF828468A
:104940000DB0BDE8F08F00003400002038B50446FB
:104950001E48807A10B94FF0FF3038BD022C06D0C7
:10496000042C07D0082C08D0102C0CD108E0002013
:1049700000900BE00820009008E01020009005E077
:104980001820009002E04FF0FF30E6E700BF0F482C
:10499000407A9DF80010B0EBE10F01D10020DCE778
:1049A0000A4A1268D179094A526810786B46012286
:1049B000FCF7B0FA10B14FF0FF30CEE79DF80000E1
:1049C000C110024841720020C7E7000034000020F7
:1049D00038B504465048807CA04201D1002038BD43
:1049E000002C46D04C4A126811794B4A5268107814
:1049F0006B460122FCF7BFF910B14FF0FF30EEE734
:104A00009DF8000020F020000090434A12681179C0
:104A1000414A526810786B460122FCF77BFA10B1CC
:104A20004FF0FF30DBE70320FDF7B0FD02200090E0
:104A3000394890F8220020B19DF8000040F0800035
:104A40000090354890F8230020B19DF8000040F018
:104A500030000090304A1268117D2F4A5268107859
:104A60006B460122FCF756FA002851D04FF0FF3078
:104A7000B5E7294A12681179274A526810786B46BF
:104A80000122FCF778F910B14FF0FF30A7E7224878
:104A9000807A00F0010028B19DF8000040F020006D
:104AA000009004E09DF8000020F0200000901A4AD9
:104AB00012681179184A526810786B460122FCF787
:104AC00029FA10B14FF0FF3089E70320FDF75EFDB2
:104AD000114890F8220010B18020009001E00020E1
:104AE00000900D4890F8230020B19DF8000040F0A0
:104AF00030000090084A1268117D074A5268107809
:104B00006B460122FCF706FA10B14FF0FF3066E762
:104B100001488474002062E73400002038B5044660
:104B2000214890F82400A04201D1002038BD24B3D0
:104B30001D4890F8250010B94FF0FF30F6E700202F
:104B400000F01CFF0020FFF743FF1749C88C00F05E
:104B5000E9F8002000901449496808786B46012262
:104B60002321FCF7D7F901210F4880F824100120F8
:104B700000F004FFFFF778FD13E0002000F0FEFED8
:104B80000948007C00900849496808786B46012272
:104B90002321FCF7BFF90021034880F82410FFF718
:104BA00063FD0020C2E700003400002038B5044651
:104BB0001F48807A10B94FF0FF3038BDFA2C09D069
:104BC000B4F5FA7F09D0B4F57A7F09D0B4F5FA6F5D
:104BD0000CD108E0002000900BE00820009008E0D5
:104BE0001020009005E01820009002E04FF0FF3008
:104BF000E3E700BF0E48007A9DF80010B0EBE10F2C
:104C000001D10020D9E70A4A12689179084A52680E
:104C100010786B460122FCF77DF910B14FF0FF30A0
:104C2000CBE79DF80000C010014908720020C4E7DE
:104C30003400002038B50446184890F82300A042FC
:104C400001D1002038BD14B13020009001E00020D7
:104C500000901248807C20B19DF8000040F00200D6
:104C600000900E4890F8220020B19DF8000040F01E
:104C700080000090094A1268117D084A5268107835
:104C80006B460122FCF746F910B14FF0FF30D9E72F
:104C9000024880F823400020D4E7000034000020C0
:104CA00038B504461E48807A10B94FF0FF3038BD41
:104CB000BC2C02DB0120009015E0622C02DB0220FC
:104CC000009010E02A2C02DB032000900BE0142C53
:104CD00002DB0420009006E00A2C02DB0520009095
:104CE00001E0062000900E48C07A9DF8001088422E
:104CF00001D10020DBE70A4A12689178084A52681D
:104D000010786B460122FCF705F910B14FF0FF3027
:104D1000CDE79DF800100248C1720020C7E70000EF
:104D20003400002038B504462448807A10B94FF08A
:104D3000FF3038BD214890F8240010B14FF0FF300B
:104D4000F7E71E48007D50B134B1282C04DCE0B2F6
:104D5000FFF77AFB0020ECE70020FFF775FB042C3F
:104D600001DA042404E0B4F57A7F01DD4FF47A74AB
:104D70004FF47A7090FBF4F0401EC0B200900F4ADE
:104D8000126851780D4A526810786B460122FCF780
:104D9000C1F810B14FF0FF30CBE79DF80000401C88
:104DA0004FF47A7191FBF0F081B20448C181014661
:104DB000C9894810FFF774FF0020BAE734000020CB
:104DC00038B5044604F0700010B10120009005E0F1
:104DD00014B10020009001E0402000902B4A12689E
:104DE000917C2A4A526810786B460122FCF792F8AF
:104DF00020B1002125488172481E38BD9DF8000071
:104E000020F04001214801730020009004F0400090
:104E100020B99DF8000040F00400009004F020004C
:104E200020B99DF8000040F00200009004F010004E
:104E300020B99DF8000040F00100009004F0080047
:104E400020B99DF8000040F0380000900F4A126829
:104E5000D17C0E4A526810786B460122FCF75AF852
:104E600020B1002109488172481EC6E724B1082CF0
:104E700002D00020FFF7DEFE044884720021017595
:104E80003220FDF783FB0020B7E70000340000204C
:104E9000F8B504460D46164616B94FF0FF30F8BD7A
:104EA0001A48807A10B94FF0FF30F8E720128DF8D9
:104EB0000000E0B28DF801009DF80100284413497C
:104EC00049684989884202DD4FF0FF30E7E70F4A21
:104ED0001268117E0D4A526810786B460222FCF768
:104EE00019F810B14FF0FF30D9E7EAB2074B1B6851
:104EF000597D064B5B6818783346FCF70BF810B108
:104F00004FF0FF30CBE70020C9E70000340000205D
:104F10002DE9F04D1D460C4698B0174621F0004192
:104F200023F00043002814BF4FF0010C4FF0000C99
:104F30000CEB440CFE4A0CEB02064FEA620C664591
:104F40002BD33E0018BF012606EB45061644F94A4E
:104F5000964222D3F84A53EA070C02D0944205D174
:104F600048B918B000201146BDE8F08D002808BFF0
:104F70004FF0000C01D04FF0010C0CEB440212F585
:104F8000001F0AD8002F14BF4FF0010C4FF0000C87
:104F90000CEB450212F5001F07D918B03A462B4614
:104FA0002146BDE8F04DFCF7DCBE0022DFF88CA303
:104FB000002CB8BF534526DADFF884C36345A8BF89
:104FC000022220DADFF870C39C451CDCDFF874C3D2
:104FD0000CEB235CBCF1140F08DDCCF1340627FA8E
:104FE00006FC0CFA06F6BE420DD108E05FB9CCF122
:104FF000140623FA06FC0CFA06F69E4203D10CF0C6
:105000000102C2F1020251EA000C19D1002D17DA97
:10501000002C18BF022A01D0012A07D00220FBF77A
:1050200075FB18B0BDE8F04DFCF790BE0220FBF711
:105030006DFBFCF78BFE18B081F00041BDE8F08DF0
:10504000B7F1000C6CD1534525D104F1804212F523
:10505000801201BF00280020B74918B008BFBDE882
:10506000F08DB548884207DC002DA1BF6046294677
:1050700018B0BDE8F08D07E0281E05DA80F0004189
:1050800018B06046BDE8F08DAF497944D1E9000120
:1050900018B0BDE8F08DDFF8A0C2634525D1002D22
:1050A0001FDA19B1514512D1D8B909E0002840F0F2
:1050B000EC82A24A214618B062F31E01BDE8F08DD1
:1050C0000020214618B060F31E01BDE8F08D08DA1B
:1050D00018B02346BDE8F04D02460020614600F0BE
:1050E000CBBF18B02146BDE8F08D514518DAB5F1B7
:1050F000804F0DD0A5F1005CBCF1FF5C10D1B4F184
:10510000000C0DDB18B06146BDE8F04D00F07EBC30
:10511000234618B00246BDE8F04D194601F086B9A5
:10512000060024F0004C3BD1D9B1514533D1002CBD
:1051300006DD002DA1BF0020514618B0BDE8F08D5E
:10514000002C01DD002D1BDB002C13DA002D11DB00
:10515000012A4FF0000014BF78497C4918B0BDE81F
:10516000F08D022A18BF002C0AD0012A08D1002C89
:1051700006DA0AE0002CB8BF002D11DA012A04D0AB
:10518000002018B00146BDE8F08D18B000204FF0A7
:105190000041BDE8F08DA1F14050B0F17F601AD020
:1051A000012000EBE47050EA020421D0624C521E50
:1051B0004FF0000B104304BF4FF0000B644C6548E8
:1051C00083427CDD644A654893421FDD884217DBD9
:1051D000002D25DB37E0002C00DA4AB1022A0CBF93
:1051E00001204FF0FF3018B0BDE8F04D01F0CBB812
:1051F0000120FBF78BFA18B0BDE8F04DFCF7B3BD0A
:105200004D4A8A4202DC002D0ADC1CE0814202DAAF
:10521000002D18DA04E0484B994220DD002D12DD04
:105220000220FBF773FAFCF7A4FD05460E460022A8
:1052300053465846214601F0F9F818B066F31E01AE
:105240002846BDE8F08D0220FBF760FAFCF798FDD8
:105250000A46214618B062F31E01BDE8F08D002217
:105260003046614601F008FB80460E466FF00102B1
:1052700001F0BDFF4FF05532394B01F00BFA4246B9
:10528000334601F0D3F80022364B01F003FA824690
:105290004246334604911046194601F0C7F852467B
:1052A000049B01F0C3F88A4600904FF0C0422E4B99
:1052B0004046314601F0BAF82C4A2B4B00E027E07B
:1052C000CDE906015146009801F0B0F882460191FF
:1052D000274A284B4046314601F0A8F85246019B28
:1052E00001F0CAFA82460B4602460591DDE9060145
:1052F00000F006FEDDE9062300268846304601F070
:10530000BBFA5246059B01F0C5F9024600F07EB992
:105310000020B1F5801F07DA35223046614601F0E2
:1053200066FF06466FF0340000EB215024E00000D9
:10533000FFFF1F00FFFF0F000000F03F0000F07FA5
:105340000000404301FCFFFF1A3900000000F0FF9D
:105350000000F0BF0000E0410000F043FFFFEF3F1E
:105360005555D53F0000E03F4715F73FFE822B65BE
:1053700044DF5DF80BAE543EA0F2FF300190C1F364
:10538000130040F07F6141F040510291FE49884294
:10539000D8BF002004DDFD498142C8BF012001DDE6
:1053A0000D9008E000200D900198401C019002989B
:1053B000A0F5801002900299F54878440B910D9960
:1053C00000EBC100D0E900230F9330460A920B99FD
:1053D00001F052FACDE90601DDE90A2130460F9BC2
:1053E00000F08EFD02460B460020EA4900F044FE24
:1053F000059102460B460090DDE9060101F016F822
:105400001490E5488A464FF00008784402990068F5
:1054100012904FF0005040EA61010D980F9B01EB94
:10542000804000F5002109910A9A129801F024FAAF
:1054300032460B9B01F02EF94246534600F0F6FF30
:105440000646029140465146099B129A00F0EEFF33
:10545000DDE9062301F01EF93246029B01F00CFA49
:10546000059B009A00F0E2FF0091149A04905346C5
:105470001046194600F0DAFF06460246C7480B46BA
:10548000029106217844FCF70BFCCDE90510029B44
:1054900032461046194600F0C9FFDDE9053200F03A
:1054A000C5FF05910646534640461946149A00F03A
:1054B00027FD009B049A00F0B9FF3246059B00F0DF
:1054C0001FFDCDE90510424653461046194600F02F
:1054D000ADFF0022B24B02910A9000F011FDDDE910
:1054E000053200F00DFD0E464246AD4B404601F040
:1054F000C3F9029B0A9A01F0BFF9DDE9053201F018
:10550000C9F8424602910A9033461046514600F0CF
:105510008DFFCDE906015346149A02990A9800F0CE
:1055200085FF8A460290334642460099049800F06F
:105530007DFF5346029A00F0E3FC82460B4602468A
:105540000591DDE9060100F0DBFCDDE90623002022
:105550008846064601F090F95246059B01F09AF8FC
:10556000824609914FF060428E4B3046414600F032
:105570005DFF049006918C4A8A4B5046099900F0D1
:1055800055FF82460291894A894B3046414600F0D8
:105590004DFF5246029B00F0B3FC864B7B440D9AB4
:1055A00003EBC203D3E9002300F0AAFC0E9007919D
:1055B000019800F0E8FE0591DDE9061382460E9A97
:1055C000049800F09DFC7C4A7A440D9B02EBC303D7
:1055D000D3E900230093029200F092FC5246059B0F
:1055E00000F08EFC0026884652463046059B01F0AE
:1055F00043F9009B029A01F03FF9069B049A01F0DF
:105600003BF9079B0E9A01F045F8024600200B4635
:1056100002903846294600F009FF824601912B4648
:1056200038461946029A01F027F93246434600F0FF
:10563000FDFE5246019B00F063FC07468A46324657
:1056400043462946029800F0F1FE05460E463A46CA
:10565000534600F055FC594A8846914221DBA8EB9D
:10566000020353EA000210D12A46334601F004F93E
:10567000CDE90401524A534B3846514600F040FCF4
:10568000DDE9042300F0D0FF21D20220FBF73EF831
:10569000FCF76FFB0A46214618B062F31E01BDE815
:1056A000F08D494B28F000429A4210D3474A08EB4C
:1056B000020353EA00027FF4C6AD2A46334601F0E6
:1056C000DBF83A46534600F0AFFF7FF6BCAD002250
:1056D000019228F000403E493E4A01EB20518242AF
:1056E00023DA481C4FF4801121FA00F040443A4A72
:1056F000C0F30A517A44394BA1F2FF31CB4020EA82
:105700000303C0F3130040F48010C1F11401C8403A
:1057100012680190B8F1000FBCBF404201902846CA
:10572000314601F0A9F805460E462A46334638466A
:10573000514600F0E5FB4FF000084246284B40463A
:10574000059100F073FECDE90601264A264B40463E
:10575000059900F06BFE009102902A4633464046C0
:10576000059901F089F83A46534600F093FF1F4A25
:105770001F4B00F05BFE009B029A00F0C1FB074646
:10578000884602460B4635E08E9803007AB60B0039
:10579000CA3400000000F03F9A35000030340000A9
:1057A0000000084009C7EE3FFD033ADCF5015B1439
:1057B000E02F3EBE08330000CC32000000009040D5
:1057C000FE822B654715973C00CC904000346F3F1C
:1057D00001FCFFFF0000E03FB0320000FFFF0F00C0
:1057E000432EE63F396CA80C615C20BEEF39FAFE0F
:1057F000422EE63FDDE9060100F082FBDDE90623EB
:1058000005460E4601F038F83A46434600F042FF9E
:105810000F462A46334600901046194600F006FE11
:10582000824602462E4888460B4605217844FCF7FE
:1058300037FA5246434600F0F9FD2A46334600F057
:1058400029FF80468A463B4628463146009A00F0AA
:10585000EDFD3B46009A00F053FB069100900022BC
:105860004FF080434046514601F006F80F460C9039
:10587000424653462846314600F0D8FD3B460C9A36
:1058800000F0FAFB069B009A00F0F6FF2A4633462A
:1058900000F0F2FF0022134B00F0FCFE05460198D9
:1058A0000E4601EB00510815002810DC2846314651
:1058B000019A01F09CFCFCF7DFF9042808BFFCF713
:1058C0005FFA28463146019A01F091FC05460B46E5
:1058D00018B02A4658462146BDE8F04D00F0A6BD56
:1058E000B83000000000F03F70B588B002A905A8EC
:1058F000FEF79EFF0446032C3ED101A8FEF7F0FB05
:10590000059801F06FFA0646019901F0CBFA0546B9
:1059100001F02CFA0590069801F064FA0646019908
:1059200001F0C0FA054601F021FA0690079801F04F
:1059300059FA0646019901F0B5FA054601F016FA42
:10594000079005A8FDF788F96846FEF775FBBDF8D6
:105950000010029848430290BDF800100398484395
:105960000390BDF8001004984843049002A8FDF786
:10597000A3F8002008B070BD0120FBE738B504464D
:10598000214890F82400C0B114B10220009001E039
:10599000002000901C4A1268D17B1B4A5268107884
:1059A0006B460122FBF7B6FA10B14FF0FF3038BD5D
:1059B0009DF800101448417423E01348807A10B910
:1059C0004FF0FF30F3E724B10F48407C08B10020CE
:1059D000EDE714B10120009001E0002000900A4A98
:1059E0001268D17B084A526810786B460122FBF797
:1059F00091FA10B14FF0FF30D9E79DF8001002483E
:105A000041740020D3E70000340000202DE9F0416C
:105A100006460F4600F04AFE041E0D4618BF012040
:105A2000284320F00040C0F17F6000F1E040C00F4B
:105A30000ED0301C18BF0120384320F00040C0F1C8
:105A40007F6000F1E040C00F04BF0120FAF75EFE66
:105A500020462946BDE8F08110B50246002100200D
:105A6000264B1B6843F48033244C23600AE000BFBC
:105A7000224B1B6803F400331BB1B1F5004F00D972
:105A800004E0491C4FF6F0739942F0D300BF4FF683
:105A9000F073994201D301202FE04FF48063174C3B
:105AA0006360921E23465B6843EA82436360234639
:105AB0005B6843F4803363601023114C23602346FA
:105AC0001B6843F0020323600C4B1B6843F0807398
:105AD0000A4C236000BF094B1B685B0E002BFAD0F9
